{
	"contracts/TransferOneToManyEth.sol": {
		"TransferOnetoManyEth": {
			"abi": [
				{
					"constant": false,
					"inputs": [
						{
							"name": "token",
							"type": "address"
						},
						{
							"name": "recipients",
							"type": "address[]"
						},
						{
							"name": "values",
							"type": "uint256[]"
						}
					],
					"name": "disperseTokenSimple",
					"outputs": [],
					"payable": false,
					"stateMutability": "nonpayable",
					"type": "function"
				},
				{
					"constant": false,
					"inputs": [
						{
							"name": "token",
							"type": "address"
						},
						{
							"name": "recipients",
							"type": "address[]"
						},
						{
							"name": "values",
							"type": "uint256[]"
						}
					],
					"name": "disperseToken",
					"outputs": [],
					"payable": false,
					"stateMutability": "nonpayable",
					"type": "function"
				},
				{
					"constant": false,
					"inputs": [
						{
							"name": "recipients",
							"type": "address[]"
						},
						{
							"name": "values",
							"type": "uint256[]"
						}
					],
					"name": "disperseEther",
					"outputs": [],
					"payable": true,
					"stateMutability": "payable",
					"type": "function"
				}
			],
			"devdoc": {
				"methods": {}
			},
			"evm": {
				"assembly": "    /* \"contracts/TransferOneToManyEth.sol\":283:1263  contract TransferOnetoManyEth {... */\n  mstore(0x40, 0x80)\n  callvalue\n    /* \"--CODEGEN--\":8:17   */\n  dup1\n    /* \"--CODEGEN--\":5:7   */\n  iszero\n  tag_1\n  jumpi\n    /* \"--CODEGEN--\":30:31   */\n  0x0\n    /* \"--CODEGEN--\":27:28   */\n  dup1\n    /* \"--CODEGEN--\":20:32   */\n  revert\n    /* \"--CODEGEN--\":5:7   */\ntag_1:\n    /* \"contracts/TransferOneToManyEth.sol\":283:1263  contract TransferOnetoManyEth {... */\n  pop\n  dataSize(sub_0)\n  dup1\n  dataOffset(sub_0)\n  0x0\n  codecopy\n  0x0\n  return\nstop\n\nsub_0: assembly {\n        /* \"contracts/TransferOneToManyEth.sol\":283:1263  contract TransferOnetoManyEth {... */\n      mstore(0x40, 0x80)\n      jumpi(tag_1, lt(calldatasize, 0x4))\n      calldataload(0x0)\n      0x100000000000000000000000000000000000000000000000000000000\n      swap1\n      div\n      0xffffffff\n      and\n      dup1\n      0x51ba162c\n      eq\n      tag_2\n      jumpi\n      dup1\n      0xc73a2d60\n      eq\n      tag_3\n      jumpi\n      dup1\n      0xe63d38ed\n      eq\n      tag_4\n      jumpi\n    tag_1:\n      0x0\n      dup1\n      revert\n        /* \"contracts/TransferOneToManyEth.sol\":1027:1261  function disperseTokenSimple(IERC20 token, address[] recipients, uint256[] values) external {... */\n    tag_2:\n      callvalue\n        /* \"--CODEGEN--\":8:17   */\n      dup1\n        /* \"--CODEGEN--\":5:7   */\n      iszero\n      tag_5\n      jumpi\n        /* \"--CODEGEN--\":30:31   */\n      0x0\n        /* \"--CODEGEN--\":27:28   */\n      dup1\n        /* \"--CODEGEN--\":20:32   */\n      revert\n        /* \"--CODEGEN--\":5:7   */\n    tag_5:\n        /* \"contracts/TransferOneToManyEth.sol\":1027:1261  function disperseTokenSimple(IERC20 token, address[] recipients, uint256[] values) external {... */\n      pop\n      tag_6\n      0x4\n      dup1\n      calldatasize\n      sub\n      dup2\n      add\n      swap1\n      dup1\n      dup1\n      calldataload\n      0xffffffffffffffffffffffffffffffffffffffff\n      and\n      swap1\n      0x20\n      add\n      swap1\n      swap3\n      swap2\n      swap1\n      dup1\n      calldataload\n      swap1\n      0x20\n      add\n      swap1\n      dup3\n      add\n      dup1\n      calldataload\n      swap1\n      0x20\n      add\n      swap2\n      swap1\n      swap2\n      swap3\n      swap4\n      swap2\n      swap3\n      swap4\n      swap1\n      dup1\n      calldataload\n      swap1\n      0x20\n      add\n      swap1\n      dup3\n      add\n      dup1\n      calldataload\n      swap1\n      0x20\n      add\n      swap2\n      swap1\n      swap2\n      swap3\n      swap4\n      swap2\n      swap3\n      swap4\n      swap1\n      pop\n      pop\n      pop\n      jump(tag_7)\n    tag_6:\n      stop\n        /* \"contracts/TransferOneToManyEth.sol\":631:1021  function disperseToken(IERC20 token, address[] recipients, uint256[] values) external {... */\n    tag_3:\n      callvalue\n        /* \"--CODEGEN--\":8:17   */\n      dup1\n        /* \"--CODEGEN--\":5:7   */\n      iszero\n      tag_8\n      jumpi\n        /* \"--CODEGEN--\":30:31   */\n      0x0\n        /* \"--CODEGEN--\":27:28   */\n      dup1\n        /* \"--CODEGEN--\":20:32   */\n      revert\n        /* \"--CODEGEN--\":5:7   */\n    tag_8:\n        /* \"contracts/TransferOneToManyEth.sol\":631:1021  function disperseToken(IERC20 token, address[] recipients, uint256[] values) external {... */\n      pop\n      tag_9\n      0x4\n      dup1\n      calldatasize\n      sub\n      dup2\n      add\n      swap1\n      dup1\n      dup1\n      calldataload\n      0xffffffffffffffffffffffffffffffffffffffff\n      and\n      swap1\n      0x20\n      add\n      swap1\n      swap3\n      swap2\n      swap1\n      dup1\n      calldataload\n      swap1\n      0x20\n      add\n      swap1\n      dup3\n      add\n      dup1\n      calldataload\n      swap1\n      0x20\n      add\n      swap2\n      swap1\n      swap2\n      swap3\n      swap4\n      swap2\n      swap3\n      swap4\n      swap1\n      dup1\n      calldataload\n      swap1\n      0x20\n      add\n      swap1\n      dup3\n      add\n      dup1\n      calldataload\n      swap1\n      0x20\n      add\n      swap2\n      swap1\n      swap2\n      swap3\n      swap4\n      swap2\n      swap3\n      swap4\n      swap1\n      pop\n      pop\n      pop\n      jump(tag_10)\n    tag_9:\n      stop\n        /* \"contracts/TransferOneToManyEth.sol\":319:625  function disperseEther(address[] recipients, uint256[] values) external payable {... */\n    tag_4:\n      tag_11\n      0x4\n      dup1\n      calldatasize\n      sub\n      dup2\n      add\n      swap1\n      dup1\n      dup1\n      calldataload\n      swap1\n      0x20\n      add\n      swap1\n      dup3\n      add\n      dup1\n      calldataload\n      swap1\n      0x20\n      add\n      swap2\n      swap1\n      swap2\n      swap3\n      swap4\n      swap2\n      swap3\n      swap4\n      swap1\n      dup1\n      calldataload\n      swap1\n      0x20\n      add\n      swap1\n      dup3\n      add\n      dup1\n      calldataload\n      swap1\n      0x20\n      add\n      swap2\n      swap1\n      swap2\n      swap3\n      swap4\n      swap2\n      swap3\n      swap4\n      swap1\n      pop\n      pop\n      pop\n      jump(tag_12)\n    tag_11:\n      stop\n        /* \"contracts/TransferOneToManyEth.sol\":1027:1261  function disperseTokenSimple(IERC20 token, address[] recipients, uint256[] values) external {... */\n    tag_7:\n        /* \"contracts/TransferOneToManyEth.sol\":1134:1143  uint256 i */\n      0x0\n        /* \"contracts/TransferOneToManyEth.sol\":1146:1147  0 */\n      dup1\n        /* \"contracts/TransferOneToManyEth.sol\":1134:1147  uint256 i = 0 */\n      swap1\n      pop\n        /* \"contracts/TransferOneToManyEth.sol\":1129:1254  for (uint256 i = 0; i < recipients.length; i++)... */\n    tag_14:\n        /* \"contracts/TransferOneToManyEth.sol\":1153:1163  recipients */\n      dup5\n      dup5\n        /* \"contracts/TransferOneToManyEth.sol\":1153:1170  recipients.length */\n      swap1\n      pop\n        /* \"contracts/TransferOneToManyEth.sol\":1149:1150  i */\n      dup2\n        /* \"contracts/TransferOneToManyEth.sol\":1149:1170  i < recipients.length */\n      lt\n        /* \"contracts/TransferOneToManyEth.sol\":1129:1254  for (uint256 i = 0; i < recipients.length; i++)... */\n      iszero\n      tag_15\n      jumpi\n        /* \"contracts/TransferOneToManyEth.sol\":1197:1202  token */\n      dup6\n        /* \"contracts/TransferOneToManyEth.sol\":1197:1215  token.transferFrom */\n      0xffffffffffffffffffffffffffffffffffffffff\n      and\n      0x23b872dd\n        /* \"contracts/TransferOneToManyEth.sol\":1216:1226  msg.sender */\n      caller\n        /* \"contracts/TransferOneToManyEth.sol\":1228:1238  recipients */\n      dup8\n      dup8\n        /* \"contracts/TransferOneToManyEth.sol\":1239:1240  i */\n      dup6\n        /* \"contracts/TransferOneToManyEth.sol\":1228:1241  recipients[i] */\n      dup2\n      dup2\n      lt\n      iszero\n      iszero\n      tag_17\n      jumpi\n      invalid\n    tag_17:\n      swap1\n      pop\n      0x20\n      mul\n      add\n      calldataload\n      0xffffffffffffffffffffffffffffffffffffffff\n      and\n        /* \"contracts/TransferOneToManyEth.sol\":1243:1249  values */\n      dup7\n      dup7\n        /* \"contracts/TransferOneToManyEth.sol\":1250:1251  i */\n      dup7\n        /* \"contracts/TransferOneToManyEth.sol\":1243:1252  values[i] */\n      dup2\n      dup2\n      lt\n      iszero\n      iszero\n      tag_18\n      jumpi\n      invalid\n    tag_18:\n      swap1\n      pop\n      0x20\n      mul\n      add\n      calldataload\n        /* \"contracts/TransferOneToManyEth.sol\":1197:1253  token.transferFrom(msg.sender, recipients[i], values[i]) */\n      mload(0x40)\n      dup5\n      0xffffffff\n      and\n      0x100000000000000000000000000000000000000000000000000000000\n      mul\n      dup2\n      mstore\n      0x4\n      add\n      dup1\n      dup5\n      0xffffffffffffffffffffffffffffffffffffffff\n      and\n      0xffffffffffffffffffffffffffffffffffffffff\n      and\n      dup2\n      mstore\n      0x20\n      add\n      dup4\n      0xffffffffffffffffffffffffffffffffffffffff\n      and\n      0xffffffffffffffffffffffffffffffffffffffff\n      and\n      dup2\n      mstore\n      0x20\n      add\n      dup3\n      dup2\n      mstore\n      0x20\n      add\n      swap4\n      pop\n      pop\n      pop\n      pop\n      0x20\n      mload(0x40)\n      dup1\n      dup4\n      sub\n      dup2\n      0x0\n      dup8\n      dup1\n      extcodesize\n      iszero\n        /* \"--CODEGEN--\":8:17   */\n      dup1\n        /* \"--CODEGEN--\":5:7   */\n      iszero\n      tag_19\n      jumpi\n        /* \"--CODEGEN--\":30:31   */\n      0x0\n        /* \"--CODEGEN--\":27:28   */\n      dup1\n        /* \"--CODEGEN--\":20:32   */\n      revert\n        /* \"--CODEGEN--\":5:7   */\n    tag_19:\n        /* \"contracts/TransferOneToManyEth.sol\":1197:1253  token.transferFrom(msg.sender, recipients[i], values[i]) */\n      pop\n      gas\n      call\n      iszero\n        /* \"--CODEGEN--\":8:17   */\n      dup1\n        /* \"--CODEGEN--\":5:7   */\n      iszero\n      tag_20\n      jumpi\n        /* \"--CODEGEN--\":45:61   */\n      returndatasize\n        /* \"--CODEGEN--\":42:43   */\n      0x0\n        /* \"--CODEGEN--\":39:40   */\n      dup1\n        /* \"--CODEGEN--\":24:62   */\n      returndatacopy\n        /* \"--CODEGEN--\":77:93   */\n      returndatasize\n        /* \"--CODEGEN--\":74:75   */\n      0x0\n        /* \"--CODEGEN--\":67:94   */\n      revert\n        /* \"--CODEGEN--\":5:7   */\n    tag_20:\n        /* \"contracts/TransferOneToManyEth.sol\":1197:1253  token.transferFrom(msg.sender, recipients[i], values[i]) */\n      pop\n      pop\n      pop\n      pop\n      mload(0x40)\n      returndatasize\n        /* \"--CODEGEN--\":13:15   */\n      0x20\n        /* \"--CODEGEN--\":8:11   */\n      dup2\n        /* \"--CODEGEN--\":5:16   */\n      lt\n        /* \"--CODEGEN--\":2:4   */\n      iszero\n      tag_21\n      jumpi\n        /* \"--CODEGEN--\":29:30   */\n      0x0\n        /* \"--CODEGEN--\":26:27   */\n      dup1\n        /* \"--CODEGEN--\":19:31   */\n      revert\n        /* \"--CODEGEN--\":2:4   */\n    tag_21:\n        /* \"contracts/TransferOneToManyEth.sol\":1197:1253  token.transferFrom(msg.sender, recipients[i], values[i]) */\n      dup2\n      add\n      swap1\n      dup1\n      dup1\n      mload\n      swap1\n      0x20\n      add\n      swap1\n      swap3\n      swap2\n      swap1\n      pop\n      pop\n      pop\n        /* \"contracts/TransferOneToManyEth.sol\":1189:1254  require(token.transferFrom(msg.sender, recipients[i], values[i])) */\n      iszero\n      iszero\n      tag_22\n      jumpi\n      0x0\n      dup1\n      revert\n    tag_22:\n        /* \"contracts/TransferOneToManyEth.sol\":1172:1175  i++ */\n      dup1\n      dup1\n      0x1\n      add\n      swap2\n      pop\n      pop\n        /* \"contracts/TransferOneToManyEth.sol\":1129:1254  for (uint256 i = 0; i < recipients.length; i++)... */\n      jump(tag_14)\n    tag_15:\n        /* \"contracts/TransferOneToManyEth.sol\":1027:1261  function disperseTokenSimple(IERC20 token, address[] recipients, uint256[] values) external {... */\n      pop\n      pop\n      pop\n      pop\n      pop\n      pop\n      jump\t// out\n        /* \"contracts/TransferOneToManyEth.sol\":631:1021  function disperseToken(IERC20 token, address[] recipients, uint256[] values) external {... */\n    tag_10:\n        /* \"contracts/TransferOneToManyEth.sol\":727:740  uint256 total */\n      0x0\n        /* \"contracts/TransferOneToManyEth.sol\":759:768  uint256 i */\n      dup1\n        /* \"contracts/TransferOneToManyEth.sol\":743:744  0 */\n      0x0\n        /* \"contracts/TransferOneToManyEth.sol\":727:744  uint256 total = 0 */\n      swap2\n      pop\n        /* \"contracts/TransferOneToManyEth.sol\":771:772  0 */\n      0x0\n        /* \"contracts/TransferOneToManyEth.sol\":759:772  uint256 i = 0 */\n      swap1\n      pop\n        /* \"contracts/TransferOneToManyEth.sol\":754:832  for (uint256 i = 0; i < recipients.length; i++)... */\n    tag_24:\n        /* \"contracts/TransferOneToManyEth.sol\":778:788  recipients */\n      dup6\n      dup6\n        /* \"contracts/TransferOneToManyEth.sol\":778:795  recipients.length */\n      swap1\n      pop\n        /* \"contracts/TransferOneToManyEth.sol\":774:775  i */\n      dup2\n        /* \"contracts/TransferOneToManyEth.sol\":774:795  i < recipients.length */\n      lt\n        /* \"contracts/TransferOneToManyEth.sol\":754:832  for (uint256 i = 0; i < recipients.length; i++)... */\n      iszero\n      tag_25\n      jumpi\n        /* \"contracts/TransferOneToManyEth.sol\":823:829  values */\n      dup4\n      dup4\n        /* \"contracts/TransferOneToManyEth.sol\":830:831  i */\n      dup3\n        /* \"contracts/TransferOneToManyEth.sol\":823:832  values[i] */\n      dup2\n      dup2\n      lt\n      iszero\n      iszero\n      tag_27\n      jumpi\n      invalid\n    tag_27:\n      swap1\n      pop\n      0x20\n      mul\n      add\n      calldataload\n        /* \"contracts/TransferOneToManyEth.sol\":814:832  total += values[i] */\n      dup3\n      add\n      swap2\n      pop\n        /* \"contracts/TransferOneToManyEth.sol\":797:800  i++ */\n      dup1\n      dup1\n      0x1\n      add\n      swap2\n      pop\n      pop\n        /* \"contracts/TransferOneToManyEth.sol\":754:832  for (uint256 i = 0; i < recipients.length; i++)... */\n      jump(tag_24)\n    tag_25:\n        /* \"contracts/TransferOneToManyEth.sol\":850:855  token */\n      dup7\n        /* \"contracts/TransferOneToManyEth.sol\":850:868  token.transferFrom */\n      0xffffffffffffffffffffffffffffffffffffffff\n      and\n      0x23b872dd\n        /* \"contracts/TransferOneToManyEth.sol\":869:879  msg.sender */\n      caller\n        /* \"contracts/TransferOneToManyEth.sol\":889:893  this */\n      address\n        /* \"contracts/TransferOneToManyEth.sol\":896:901  total */\n      dup6\n        /* \"contracts/TransferOneToManyEth.sol\":850:902  token.transferFrom(msg.sender, address(this), total) */\n      mload(0x40)\n      dup5\n      0xffffffff\n      and\n      0x100000000000000000000000000000000000000000000000000000000\n      mul\n      dup2\n      mstore\n      0x4\n      add\n      dup1\n      dup5\n      0xffffffffffffffffffffffffffffffffffffffff\n      and\n      0xffffffffffffffffffffffffffffffffffffffff\n      and\n      dup2\n      mstore\n      0x20\n      add\n      dup4\n      0xffffffffffffffffffffffffffffffffffffffff\n      and\n      0xffffffffffffffffffffffffffffffffffffffff\n      and\n      dup2\n      mstore\n      0x20\n      add\n      dup3\n      dup2\n      mstore\n      0x20\n      add\n      swap4\n      pop\n      pop\n      pop\n      pop\n      0x20\n      mload(0x40)\n      dup1\n      dup4\n      sub\n      dup2\n      0x0\n      dup8\n      dup1\n      extcodesize\n      iszero\n        /* \"--CODEGEN--\":8:17   */\n      dup1\n        /* \"--CODEGEN--\":5:7   */\n      iszero\n      tag_28\n      jumpi\n        /* \"--CODEGEN--\":30:31   */\n      0x0\n        /* \"--CODEGEN--\":27:28   */\n      dup1\n        /* \"--CODEGEN--\":20:32   */\n      revert\n        /* \"--CODEGEN--\":5:7   */\n    tag_28:\n        /* \"contracts/TransferOneToManyEth.sol\":850:902  token.transferFrom(msg.sender, address(this), total) */\n      pop\n      gas\n      call\n      iszero\n        /* \"--CODEGEN--\":8:17   */\n      dup1\n        /* \"--CODEGEN--\":5:7   */\n      iszero\n      tag_29\n      jumpi\n        /* \"--CODEGEN--\":45:61   */\n      returndatasize\n        /* \"--CODEGEN--\":42:43   */\n      0x0\n        /* \"--CODEGEN--\":39:40   */\n      dup1\n        /* \"--CODEGEN--\":24:62   */\n      returndatacopy\n        /* \"--CODEGEN--\":77:93   */\n      returndatasize\n        /* \"--CODEGEN--\":74:75   */\n      0x0\n        /* \"--CODEGEN--\":67:94   */\n      revert\n        /* \"--CODEGEN--\":5:7   */\n    tag_29:\n        /* \"contracts/TransferOneToManyEth.sol\":850:902  token.transferFrom(msg.sender, address(this), total) */\n      pop\n      pop\n      pop\n      pop\n      mload(0x40)\n      returndatasize\n        /* \"--CODEGEN--\":13:15   */\n      0x20\n        /* \"--CODEGEN--\":8:11   */\n      dup2\n        /* \"--CODEGEN--\":5:16   */\n      lt\n        /* \"--CODEGEN--\":2:4   */\n      iszero\n      tag_30\n      jumpi\n        /* \"--CODEGEN--\":29:30   */\n      0x0\n        /* \"--CODEGEN--\":26:27   */\n      dup1\n        /* \"--CODEGEN--\":19:31   */\n      revert\n        /* \"--CODEGEN--\":2:4   */\n    tag_30:\n        /* \"contracts/TransferOneToManyEth.sol\":850:902  token.transferFrom(msg.sender, address(this), total) */\n      dup2\n      add\n      swap1\n      dup1\n      dup1\n      mload\n      swap1\n      0x20\n      add\n      swap1\n      swap3\n      swap2\n      swap1\n      pop\n      pop\n      pop\n        /* \"contracts/TransferOneToManyEth.sol\":842:903  require(token.transferFrom(msg.sender, address(this), total)) */\n      iszero\n      iszero\n      tag_31\n      jumpi\n      0x0\n      dup1\n      revert\n    tag_31:\n        /* \"contracts/TransferOneToManyEth.sol\":922:923  0 */\n      0x0\n        /* \"contracts/TransferOneToManyEth.sol\":918:923  i = 0 */\n      swap1\n      pop\n        /* \"contracts/TransferOneToManyEth.sol\":913:1014  for (i = 0; i < recipients.length; i++)... */\n    tag_32:\n        /* \"contracts/TransferOneToManyEth.sol\":929:939  recipients */\n      dup6\n      dup6\n        /* \"contracts/TransferOneToManyEth.sol\":929:946  recipients.length */\n      swap1\n      pop\n        /* \"contracts/TransferOneToManyEth.sol\":925:926  i */\n      dup2\n        /* \"contracts/TransferOneToManyEth.sol\":925:946  i < recipients.length */\n      lt\n        /* \"contracts/TransferOneToManyEth.sol\":913:1014  for (i = 0; i < recipients.length; i++)... */\n      iszero\n      tag_33\n      jumpi\n        /* \"contracts/TransferOneToManyEth.sol\":973:978  token */\n      dup7\n        /* \"contracts/TransferOneToManyEth.sol\":973:987  token.transfer */\n      0xffffffffffffffffffffffffffffffffffffffff\n      and\n      0xa9059cbb\n        /* \"contracts/TransferOneToManyEth.sol\":988:998  recipients */\n      dup8\n      dup8\n        /* \"contracts/TransferOneToManyEth.sol\":999:1000  i */\n      dup5\n        /* \"contracts/TransferOneToManyEth.sol\":988:1001  recipients[i] */\n      dup2\n      dup2\n      lt\n      iszero\n      iszero\n      tag_35\n      jumpi\n      invalid\n    tag_35:\n      swap1\n      pop\n      0x20\n      mul\n      add\n      calldataload\n      0xffffffffffffffffffffffffffffffffffffffff\n      and\n        /* \"contracts/TransferOneToManyEth.sol\":1003:1009  values */\n      dup7\n      dup7\n        /* \"contracts/TransferOneToManyEth.sol\":1010:1011  i */\n      dup6\n        /* \"contracts/TransferOneToManyEth.sol\":1003:1012  values[i] */\n      dup2\n      dup2\n      lt\n      iszero\n      iszero\n      tag_36\n      jumpi\n      invalid\n    tag_36:\n      swap1\n      pop\n      0x20\n      mul\n      add\n      calldataload\n        /* \"contracts/TransferOneToManyEth.sol\":973:1013  token.transfer(recipients[i], values[i]) */\n      mload(0x40)\n      dup4\n      0xffffffff\n      and\n      0x100000000000000000000000000000000000000000000000000000000\n      mul\n      dup2\n      mstore\n      0x4\n      add\n      dup1\n      dup4\n      0xffffffffffffffffffffffffffffffffffffffff\n      and\n      0xffffffffffffffffffffffffffffffffffffffff\n      and\n      dup2\n      mstore\n      0x20\n      add\n      dup3\n      dup2\n      mstore\n      0x20\n      add\n      swap3\n      pop\n      pop\n      pop\n      0x20\n      mload(0x40)\n      dup1\n      dup4\n      sub\n      dup2\n      0x0\n      dup8\n      dup1\n      extcodesize\n      iszero\n        /* \"--CODEGEN--\":8:17   */\n      dup1\n        /* \"--CODEGEN--\":5:7   */\n      iszero\n      tag_37\n      jumpi\n        /* \"--CODEGEN--\":30:31   */\n      0x0\n        /* \"--CODEGEN--\":27:28   */\n      dup1\n        /* \"--CODEGEN--\":20:32   */\n      revert\n        /* \"--CODEGEN--\":5:7   */\n    tag_37:\n        /* \"contracts/TransferOneToManyEth.sol\":973:1013  token.transfer(recipients[i], values[i]) */\n      pop\n      gas\n      call\n      iszero\n        /* \"--CODEGEN--\":8:17   */\n      dup1\n        /* \"--CODEGEN--\":5:7   */\n      iszero\n      tag_38\n      jumpi\n        /* \"--CODEGEN--\":45:61   */\n      returndatasize\n        /* \"--CODEGEN--\":42:43   */\n      0x0\n        /* \"--CODEGEN--\":39:40   */\n      dup1\n        /* \"--CODEGEN--\":24:62   */\n      returndatacopy\n        /* \"--CODEGEN--\":77:93   */\n      returndatasize\n        /* \"--CODEGEN--\":74:75   */\n      0x0\n        /* \"--CODEGEN--\":67:94   */\n      revert\n        /* \"--CODEGEN--\":5:7   */\n    tag_38:\n        /* \"contracts/TransferOneToManyEth.sol\":973:1013  token.transfer(recipients[i], values[i]) */\n      pop\n      pop\n      pop\n      pop\n      mload(0x40)\n      returndatasize\n        /* \"--CODEGEN--\":13:15   */\n      0x20\n        /* \"--CODEGEN--\":8:11   */\n      dup2\n        /* \"--CODEGEN--\":5:16   */\n      lt\n        /* \"--CODEGEN--\":2:4   */\n      iszero\n      tag_39\n      jumpi\n        /* \"--CODEGEN--\":29:30   */\n      0x0\n        /* \"--CODEGEN--\":26:27   */\n      dup1\n        /* \"--CODEGEN--\":19:31   */\n      revert\n        /* \"--CODEGEN--\":2:4   */\n    tag_39:\n        /* \"contracts/TransferOneToManyEth.sol\":973:1013  token.transfer(recipients[i], values[i]) */\n      dup2\n      add\n      swap1\n      dup1\n      dup1\n      mload\n      swap1\n      0x20\n      add\n      swap1\n      swap3\n      swap2\n      swap1\n      pop\n      pop\n      pop\n        /* \"contracts/TransferOneToManyEth.sol\":965:1014  require(token.transfer(recipients[i], values[i])) */\n      iszero\n      iszero\n      tag_40\n      jumpi\n      0x0\n      dup1\n      revert\n    tag_40:\n        /* \"contracts/TransferOneToManyEth.sol\":948:951  i++ */\n      dup1\n      dup1\n      0x1\n      add\n      swap2\n      pop\n      pop\n        /* \"contracts/TransferOneToManyEth.sol\":913:1014  for (i = 0; i < recipients.length; i++)... */\n      jump(tag_32)\n    tag_33:\n        /* \"contracts/TransferOneToManyEth.sol\":631:1021  function disperseToken(IERC20 token, address[] recipients, uint256[] values) external {... */\n      pop\n      pop\n      pop\n      pop\n      pop\n      pop\n      pop\n      jump\t// out\n        /* \"contracts/TransferOneToManyEth.sol\":319:625  function disperseEther(address[] recipients, uint256[] values) external payable {... */\n    tag_12:\n        /* \"contracts/TransferOneToManyEth.sol\":414:423  uint256 i */\n      0x0\n        /* \"contracts/TransferOneToManyEth.sol\":512:527  uint256 balance */\n      dup1\n        /* \"contracts/TransferOneToManyEth.sol\":426:427  0 */\n      0x0\n        /* \"contracts/TransferOneToManyEth.sol\":414:427  uint256 i = 0 */\n      swap2\n      pop\n        /* \"contracts/TransferOneToManyEth.sol\":409:502  for (uint256 i = 0; i < recipients.length; i++)... */\n    tag_42:\n        /* \"contracts/TransferOneToManyEth.sol\":433:443  recipients */\n      dup6\n      dup6\n        /* \"contracts/TransferOneToManyEth.sol\":433:450  recipients.length */\n      swap1\n      pop\n        /* \"contracts/TransferOneToManyEth.sol\":429:430  i */\n      dup3\n        /* \"contracts/TransferOneToManyEth.sol\":429:450  i < recipients.length */\n      lt\n        /* \"contracts/TransferOneToManyEth.sol\":409:502  for (uint256 i = 0; i < recipients.length; i++)... */\n      iszero\n      tag_43\n      jumpi\n        /* \"contracts/TransferOneToManyEth.sol\":469:479  recipients */\n      dup6\n      dup6\n        /* \"contracts/TransferOneToManyEth.sol\":480:481  i */\n      dup4\n        /* \"contracts/TransferOneToManyEth.sol\":469:482  recipients[i] */\n      dup2\n      dup2\n      lt\n      iszero\n      iszero\n      tag_45\n      jumpi\n      invalid\n    tag_45:\n      swap1\n      pop\n      0x20\n      mul\n      add\n      calldataload\n      0xffffffffffffffffffffffffffffffffffffffff\n      and\n        /* \"contracts/TransferOneToManyEth.sol\":469:491  recipients[i].transfer */\n      0xffffffffffffffffffffffffffffffffffffffff\n      and\n        /* \"contracts/TransferOneToManyEth.sol\":469:502  recipients[i].transfer(values[i]) */\n      0x8fc\n        /* \"contracts/TransferOneToManyEth.sol\":492:498  values */\n      dup6\n      dup6\n        /* \"contracts/TransferOneToManyEth.sol\":499:500  i */\n      dup6\n        /* \"contracts/TransferOneToManyEth.sol\":492:501  values[i] */\n      dup2\n      dup2\n      lt\n      iszero\n      iszero\n      tag_46\n      jumpi\n      invalid\n    tag_46:\n      swap1\n      pop\n      0x20\n      mul\n      add\n      calldataload\n        /* \"contracts/TransferOneToManyEth.sol\":469:502  recipients[i].transfer(values[i]) */\n      swap1\n      dup2\n      iszero\n      mul\n      swap1\n      mload(0x40)\n      0x0\n      mload(0x40)\n      dup1\n      dup4\n      sub\n      dup2\n      dup6\n      dup9\n      dup9\n      call\n      swap4\n      pop\n      pop\n      pop\n      pop\n      iszero\n        /* \"--CODEGEN--\":8:17   */\n      dup1\n        /* \"--CODEGEN--\":5:7   */\n      iszero\n      tag_47\n      jumpi\n        /* \"--CODEGEN--\":45:61   */\n      returndatasize\n        /* \"--CODEGEN--\":42:43   */\n      0x0\n        /* \"--CODEGEN--\":39:40   */\n      dup1\n        /* \"--CODEGEN--\":24:62   */\n      returndatacopy\n        /* \"--CODEGEN--\":77:93   */\n      returndatasize\n        /* \"--CODEGEN--\":74:75   */\n      0x0\n        /* \"--CODEGEN--\":67:94   */\n      revert\n        /* \"--CODEGEN--\":5:7   */\n    tag_47:\n        /* \"contracts/TransferOneToManyEth.sol\":469:502  recipients[i].transfer(values[i]) */\n      pop\n        /* \"contracts/TransferOneToManyEth.sol\":452:455  i++ */\n      dup2\n      dup1\n      0x1\n      add\n      swap3\n      pop\n      pop\n        /* \"contracts/TransferOneToManyEth.sol\":409:502  for (uint256 i = 0; i < recipients.length; i++)... */\n      jump(tag_42)\n    tag_43:\n        /* \"contracts/TransferOneToManyEth.sol\":538:542  this */\n      address\n        /* \"contracts/TransferOneToManyEth.sol\":530:551  address(this).balance */\n      0xffffffffffffffffffffffffffffffffffffffff\n      and\n      balance\n        /* \"contracts/TransferOneToManyEth.sol\":512:551  uint256 balance = address(this).balance */\n      swap1\n      pop\n        /* \"contracts/TransferOneToManyEth.sol\":575:576  0 */\n      0x0\n        /* \"contracts/TransferOneToManyEth.sol\":565:572  balance */\n      dup2\n        /* \"contracts/TransferOneToManyEth.sol\":565:576  balance > 0 */\n      gt\n        /* \"contracts/TransferOneToManyEth.sol\":561:618  if (balance > 0)... */\n      iszero\n      tag_48\n      jumpi\n        /* \"contracts/TransferOneToManyEth.sol\":590:600  msg.sender */\n      caller\n        /* \"contracts/TransferOneToManyEth.sol\":590:609  msg.sender.transfer */\n      0xffffffffffffffffffffffffffffffffffffffff\n      and\n        /* \"contracts/TransferOneToManyEth.sol\":590:618  msg.sender.transfer(balance) */\n      0x8fc\n        /* \"contracts/TransferOneToManyEth.sol\":610:617  balance */\n      dup3\n        /* \"contracts/TransferOneToManyEth.sol\":590:618  msg.sender.transfer(balance) */\n      swap1\n      dup2\n      iszero\n      mul\n      swap1\n      mload(0x40)\n      0x0\n      mload(0x40)\n      dup1\n      dup4\n      sub\n      dup2\n      dup6\n      dup9\n      dup9\n      call\n      swap4\n      pop\n      pop\n      pop\n      pop\n      iszero\n        /* \"--CODEGEN--\":8:17   */\n      dup1\n        /* \"--CODEGEN--\":5:7   */\n      iszero\n      tag_49\n      jumpi\n        /* \"--CODEGEN--\":45:61   */\n      returndatasize\n        /* \"--CODEGEN--\":42:43   */\n      0x0\n        /* \"--CODEGEN--\":39:40   */\n      dup1\n        /* \"--CODEGEN--\":24:62   */\n      returndatacopy\n        /* \"--CODEGEN--\":77:93   */\n      returndatasize\n        /* \"--CODEGEN--\":74:75   */\n      0x0\n        /* \"--CODEGEN--\":67:94   */\n      revert\n        /* \"--CODEGEN--\":5:7   */\n    tag_49:\n        /* \"contracts/TransferOneToManyEth.sol\":590:618  msg.sender.transfer(balance) */\n      pop\n        /* \"contracts/TransferOneToManyEth.sol\":561:618  if (balance > 0)... */\n    tag_48:\n        /* \"contracts/TransferOneToManyEth.sol\":319:625  function disperseEther(address[] recipients, uint256[] values) external payable {... */\n      pop\n      pop\n      pop\n      pop\n      pop\n      pop\n      jump\t// out\n\n    auxdata: 0xa165627a7a72305820a0e80e48203c7b63576be85ff3c16788a7499e045740c95df2c5427913d9a7920029\n}\n",
				"bytecode": {
					"linkReferences": {},
					"object": "608060405234801561001057600080fd5b506106f4806100206000396000f300608060405260043610610057576000357c0100000000000000000000000000000000000000000000000000000000900463ffffffff16806351ba162c1461005c578063c73a2d60146100cf578063e63d38ed14610142575b600080fd5b34801561006857600080fd5b506100cd600480360381019080803573ffffffffffffffffffffffffffffffffffffffff169060200190929190803590602001908201803590602001919091929391929390803590602001908201803590602001919091929391929390505050610188565b005b3480156100db57600080fd5b50610140600480360381019080803573ffffffffffffffffffffffffffffffffffffffff169060200190929190803590602001908201803590602001919091929391929390803590602001908201803590602001919091929391929390505050610309565b005b6101866004803603810190808035906020019082018035906020019190919293919293908035906020019082018035906020019190919293919293905050506105b0565b005b60008090505b84849050811015610301578573ffffffffffffffffffffffffffffffffffffffff166323b872dd3387878581811015156101c457fe5b9050602002013573ffffffffffffffffffffffffffffffffffffffff1686868681811015156101ef57fe5b905060200201356040518463ffffffff167c0100000000000000000000000000000000000000000000000000000000028152600401808473ffffffffffffffffffffffffffffffffffffffff1673ffffffffffffffffffffffffffffffffffffffff1681526020018373ffffffffffffffffffffffffffffffffffffffff1673ffffffffffffffffffffffffffffffffffffffff1681526020018281526020019350505050602060405180830381600087803b1580156102ae57600080fd5b505af11580156102c2573d6000803e3d6000fd5b505050506040513d60208110156102d857600080fd5b810190808051906020019092919050505015156102f457600080fd5b808060010191505061018e565b505050505050565b60008060009150600090505b8585905081101561034657838382818110151561032e57fe5b90506020020135820191508080600101915050610315565b8673ffffffffffffffffffffffffffffffffffffffff166323b872dd3330856040518463ffffffff167c0100000000000000000000000000000000000000000000000000000000028152600401808473ffffffffffffffffffffffffffffffffffffffff1673ffffffffffffffffffffffffffffffffffffffff1681526020018373ffffffffffffffffffffffffffffffffffffffff1673ffffffffffffffffffffffffffffffffffffffff1681526020018281526020019350505050602060405180830381600087803b15801561041d57600080fd5b505af1158015610431573d6000803e3d6000fd5b505050506040513d602081101561044757600080fd5b8101908080519060200190929190505050151561046357600080fd5b600090505b858590508110156105a7578673ffffffffffffffffffffffffffffffffffffffff1663a9059cbb878784818110151561049d57fe5b9050602002013573ffffffffffffffffffffffffffffffffffffffff1686868581811015156104c857fe5b905060200201356040518363ffffffff167c0100000000000000000000000000000000000000000000000000000000028152600401808373ffffffffffffffffffffffffffffffffffffffff1673ffffffffffffffffffffffffffffffffffffffff16815260200182815260200192505050602060405180830381600087803b15801561055457600080fd5b505af1158015610568573d6000803e3d6000fd5b505050506040513d602081101561057e57600080fd5b8101908080519060200190929190505050151561059a57600080fd5b8080600101915050610468565b50505050505050565b600080600091505b858590508210156106555785858381811015156105d157fe5b9050602002013573ffffffffffffffffffffffffffffffffffffffff1673ffffffffffffffffffffffffffffffffffffffff166108fc858585818110151561061557fe5b905060200201359081150290604051600060405180830381858888f19350505050158015610647573d6000803e3d6000fd5b5081806001019250506105b8565b3073ffffffffffffffffffffffffffffffffffffffff1631905060008111156106c0573373ffffffffffffffffffffffffffffffffffffffff166108fc829081150290604051600060405180830381858888f193505050501580156106be573d6000803e3d6000fd5b505b5050505050505600a165627a7a72305820a0e80e48203c7b63576be85ff3c16788a7499e045740c95df2c5427913d9a7920029",
					"opcodes": "PUSH1 0x80 PUSH1 0x40 MSTORE CALLVALUE DUP1 ISZERO PUSH2 0x10 JUMPI PUSH1 0x0 DUP1 REVERT JUMPDEST POP PUSH2 0x6F4 DUP1 PUSH2 0x20 PUSH1 0x0 CODECOPY PUSH1 0x0 RETURN STOP PUSH1 0x80 PUSH1 0x40 MSTORE PUSH1 0x4 CALLDATASIZE LT PUSH2 0x57 JUMPI PUSH1 0x0 CALLDATALOAD PUSH29 0x100000000000000000000000000000000000000000000000000000000 SWAP1 DIV PUSH4 0xFFFFFFFF AND DUP1 PUSH4 0x51BA162C EQ PUSH2 0x5C JUMPI DUP1 PUSH4 0xC73A2D60 EQ PUSH2 0xCF JUMPI DUP1 PUSH4 0xE63D38ED EQ PUSH2 0x142 JUMPI JUMPDEST PUSH1 0x0 DUP1 REVERT JUMPDEST CALLVALUE DUP1 ISZERO PUSH2 0x68 JUMPI PUSH1 0x0 DUP1 REVERT JUMPDEST POP PUSH2 0xCD PUSH1 0x4 DUP1 CALLDATASIZE SUB DUP2 ADD SWAP1 DUP1 DUP1 CALLDATALOAD PUSH20 0xFFFFFFFFFFFFFFFFFFFFFFFFFFFFFFFFFFFFFFFF AND SWAP1 PUSH1 0x20 ADD SWAP1 SWAP3 SWAP2 SWAP1 DUP1 CALLDATALOAD SWAP1 PUSH1 0x20 ADD SWAP1 DUP3 ADD DUP1 CALLDATALOAD SWAP1 PUSH1 0x20 ADD SWAP2 SWAP1 SWAP2 SWAP3 SWAP4 SWAP2 SWAP3 SWAP4 SWAP1 DUP1 CALLDATALOAD SWAP1 PUSH1 0x20 ADD SWAP1 DUP3 ADD DUP1 CALLDATALOAD SWAP1 PUSH1 0x20 ADD SWAP2 SWAP1 SWAP2 SWAP3 SWAP4 SWAP2 SWAP3 SWAP4 SWAP1 POP POP POP PUSH2 0x188 JUMP JUMPDEST STOP JUMPDEST CALLVALUE DUP1 ISZERO PUSH2 0xDB JUMPI PUSH1 0x0 DUP1 REVERT JUMPDEST POP PUSH2 0x140 PUSH1 0x4 DUP1 CALLDATASIZE SUB DUP2 ADD SWAP1 DUP1 DUP1 CALLDATALOAD PUSH20 0xFFFFFFFFFFFFFFFFFFFFFFFFFFFFFFFFFFFFFFFF AND SWAP1 PUSH1 0x20 ADD SWAP1 SWAP3 SWAP2 SWAP1 DUP1 CALLDATALOAD SWAP1 PUSH1 0x20 ADD SWAP1 DUP3 ADD DUP1 CALLDATALOAD SWAP1 PUSH1 0x20 ADD SWAP2 SWAP1 SWAP2 SWAP3 SWAP4 SWAP2 SWAP3 SWAP4 SWAP1 DUP1 CALLDATALOAD SWAP1 PUSH1 0x20 ADD SWAP1 DUP3 ADD DUP1 CALLDATALOAD SWAP1 PUSH1 0x20 ADD SWAP2 SWAP1 SWAP2 SWAP3 SWAP4 SWAP2 SWAP3 SWAP4 SWAP1 POP POP POP PUSH2 0x309 JUMP JUMPDEST STOP JUMPDEST PUSH2 0x186 PUSH1 0x4 DUP1 CALLDATASIZE SUB DUP2 ADD SWAP1 DUP1 DUP1 CALLDATALOAD SWAP1 PUSH1 0x20 ADD SWAP1 DUP3 ADD DUP1 CALLDATALOAD SWAP1 PUSH1 0x20 ADD SWAP2 SWAP1 SWAP2 SWAP3 SWAP4 SWAP2 SWAP3 SWAP4 SWAP1 DUP1 CALLDATALOAD SWAP1 PUSH1 0x20 ADD SWAP1 DUP3 ADD DUP1 CALLDATALOAD SWAP1 PUSH1 0x20 ADD SWAP2 SWAP1 SWAP2 SWAP3 SWAP4 SWAP2 SWAP3 SWAP4 SWAP1 POP POP POP PUSH2 0x5B0 JUMP JUMPDEST STOP JUMPDEST PUSH1 0x0 DUP1 SWAP1 POP JUMPDEST DUP5 DUP5 SWAP1 POP DUP2 LT ISZERO PUSH2 0x301 JUMPI DUP6 PUSH20 0xFFFFFFFFFFFFFFFFFFFFFFFFFFFFFFFFFFFFFFFF AND PUSH4 0x23B872DD CALLER DUP8 DUP8 DUP6 DUP2 DUP2 LT ISZERO ISZERO PUSH2 0x1C4 JUMPI INVALID JUMPDEST SWAP1 POP PUSH1 0x20 MUL ADD CALLDATALOAD PUSH20 0xFFFFFFFFFFFFFFFFFFFFFFFFFFFFFFFFFFFFFFFF AND DUP7 DUP7 DUP7 DUP2 DUP2 LT ISZERO ISZERO PUSH2 0x1EF JUMPI INVALID JUMPDEST SWAP1 POP PUSH1 0x20 MUL ADD CALLDATALOAD PUSH1 0x40 MLOAD DUP5 PUSH4 0xFFFFFFFF AND PUSH29 0x100000000000000000000000000000000000000000000000000000000 MUL DUP2 MSTORE PUSH1 0x4 ADD DUP1 DUP5 PUSH20 0xFFFFFFFFFFFFFFFFFFFFFFFFFFFFFFFFFFFFFFFF AND PUSH20 0xFFFFFFFFFFFFFFFFFFFFFFFFFFFFFFFFFFFFFFFF AND DUP2 MSTORE PUSH1 0x20 ADD DUP4 PUSH20 0xFFFFFFFFFFFFFFFFFFFFFFFFFFFFFFFFFFFFFFFF AND PUSH20 0xFFFFFFFFFFFFFFFFFFFFFFFFFFFFFFFFFFFFFFFF AND DUP2 MSTORE PUSH1 0x20 ADD DUP3 DUP2 MSTORE PUSH1 0x20 ADD SWAP4 POP POP POP POP PUSH1 0x20 PUSH1 0x40 MLOAD DUP1 DUP4 SUB DUP2 PUSH1 0x0 DUP8 DUP1 EXTCODESIZE ISZERO DUP1 ISZERO PUSH2 0x2AE JUMPI PUSH1 0x0 DUP1 REVERT JUMPDEST POP GAS CALL ISZERO DUP1 ISZERO PUSH2 0x2C2 JUMPI RETURNDATASIZE PUSH1 0x0 DUP1 RETURNDATACOPY RETURNDATASIZE PUSH1 0x0 REVERT JUMPDEST POP POP POP POP PUSH1 0x40 MLOAD RETURNDATASIZE PUSH1 0x20 DUP2 LT ISZERO PUSH2 0x2D8 JUMPI PUSH1 0x0 DUP1 REVERT JUMPDEST DUP2 ADD SWAP1 DUP1 DUP1 MLOAD SWAP1 PUSH1 0x20 ADD SWAP1 SWAP3 SWAP2 SWAP1 POP POP POP ISZERO ISZERO PUSH2 0x2F4 JUMPI PUSH1 0x0 DUP1 REVERT JUMPDEST DUP1 DUP1 PUSH1 0x1 ADD SWAP2 POP POP PUSH2 0x18E JUMP JUMPDEST POP POP POP POP POP POP JUMP JUMPDEST PUSH1 0x0 DUP1 PUSH1 0x0 SWAP2 POP PUSH1 0x0 SWAP1 POP JUMPDEST DUP6 DUP6 SWAP1 POP DUP2 LT ISZERO PUSH2 0x346 JUMPI DUP4 DUP4 DUP3 DUP2 DUP2 LT ISZERO ISZERO PUSH2 0x32E JUMPI INVALID JUMPDEST SWAP1 POP PUSH1 0x20 MUL ADD CALLDATALOAD DUP3 ADD SWAP2 POP DUP1 DUP1 PUSH1 0x1 ADD SWAP2 POP POP PUSH2 0x315 JUMP JUMPDEST DUP7 PUSH20 0xFFFFFFFFFFFFFFFFFFFFFFFFFFFFFFFFFFFFFFFF AND PUSH4 0x23B872DD CALLER ADDRESS DUP6 PUSH1 0x40 MLOAD DUP5 PUSH4 0xFFFFFFFF AND PUSH29 0x100000000000000000000000000000000000000000000000000000000 MUL DUP2 MSTORE PUSH1 0x4 ADD DUP1 DUP5 PUSH20 0xFFFFFFFFFFFFFFFFFFFFFFFFFFFFFFFFFFFFFFFF AND PUSH20 0xFFFFFFFFFFFFFFFFFFFFFFFFFFFFFFFFFFFFFFFF AND DUP2 MSTORE PUSH1 0x20 ADD DUP4 PUSH20 0xFFFFFFFFFFFFFFFFFFFFFFFFFFFFFFFFFFFFFFFF AND PUSH20 0xFFFFFFFFFFFFFFFFFFFFFFFFFFFFFFFFFFFFFFFF AND DUP2 MSTORE PUSH1 0x20 ADD DUP3 DUP2 MSTORE PUSH1 0x20 ADD SWAP4 POP POP POP POP PUSH1 0x20 PUSH1 0x40 MLOAD DUP1 DUP4 SUB DUP2 PUSH1 0x0 DUP8 DUP1 EXTCODESIZE ISZERO DUP1 ISZERO PUSH2 0x41D JUMPI PUSH1 0x0 DUP1 REVERT JUMPDEST POP GAS CALL ISZERO DUP1 ISZERO PUSH2 0x431 JUMPI RETURNDATASIZE PUSH1 0x0 DUP1 RETURNDATACOPY RETURNDATASIZE PUSH1 0x0 REVERT JUMPDEST POP POP POP POP PUSH1 0x40 MLOAD RETURNDATASIZE PUSH1 0x20 DUP2 LT ISZERO PUSH2 0x447 JUMPI PUSH1 0x0 DUP1 REVERT JUMPDEST DUP2 ADD SWAP1 DUP1 DUP1 MLOAD SWAP1 PUSH1 0x20 ADD SWAP1 SWAP3 SWAP2 SWAP1 POP POP POP ISZERO ISZERO PUSH2 0x463 JUMPI PUSH1 0x0 DUP1 REVERT JUMPDEST PUSH1 0x0 SWAP1 POP JUMPDEST DUP6 DUP6 SWAP1 POP DUP2 LT ISZERO PUSH2 0x5A7 JUMPI DUP7 PUSH20 0xFFFFFFFFFFFFFFFFFFFFFFFFFFFFFFFFFFFFFFFF AND PUSH4 0xA9059CBB DUP8 DUP8 DUP5 DUP2 DUP2 LT ISZERO ISZERO PUSH2 0x49D JUMPI INVALID JUMPDEST SWAP1 POP PUSH1 0x20 MUL ADD CALLDATALOAD PUSH20 0xFFFFFFFFFFFFFFFFFFFFFFFFFFFFFFFFFFFFFFFF AND DUP7 DUP7 DUP6 DUP2 DUP2 LT ISZERO ISZERO PUSH2 0x4C8 JUMPI INVALID JUMPDEST SWAP1 POP PUSH1 0x20 MUL ADD CALLDATALOAD PUSH1 0x40 MLOAD DUP4 PUSH4 0xFFFFFFFF AND PUSH29 0x100000000000000000000000000000000000000000000000000000000 MUL DUP2 MSTORE PUSH1 0x4 ADD DUP1 DUP4 PUSH20 0xFFFFFFFFFFFFFFFFFFFFFFFFFFFFFFFFFFFFFFFF AND PUSH20 0xFFFFFFFFFFFFFFFFFFFFFFFFFFFFFFFFFFFFFFFF AND DUP2 MSTORE PUSH1 0x20 ADD DUP3 DUP2 MSTORE PUSH1 0x20 ADD SWAP3 POP POP POP PUSH1 0x20 PUSH1 0x40 MLOAD DUP1 DUP4 SUB DUP2 PUSH1 0x0 DUP8 DUP1 EXTCODESIZE ISZERO DUP1 ISZERO PUSH2 0x554 JUMPI PUSH1 0x0 DUP1 REVERT JUMPDEST POP GAS CALL ISZERO DUP1 ISZERO PUSH2 0x568 JUMPI RETURNDATASIZE PUSH1 0x0 DUP1 RETURNDATACOPY RETURNDATASIZE PUSH1 0x0 REVERT JUMPDEST POP POP POP POP PUSH1 0x40 MLOAD RETURNDATASIZE PUSH1 0x20 DUP2 LT ISZERO PUSH2 0x57E JUMPI PUSH1 0x0 DUP1 REVERT JUMPDEST DUP2 ADD SWAP1 DUP1 DUP1 MLOAD SWAP1 PUSH1 0x20 ADD SWAP1 SWAP3 SWAP2 SWAP1 POP POP POP ISZERO ISZERO PUSH2 0x59A JUMPI PUSH1 0x0 DUP1 REVERT JUMPDEST DUP1 DUP1 PUSH1 0x1 ADD SWAP2 POP POP PUSH2 0x468 JUMP JUMPDEST POP POP POP POP POP POP POP JUMP JUMPDEST PUSH1 0x0 DUP1 PUSH1 0x0 SWAP2 POP JUMPDEST DUP6 DUP6 SWAP1 POP DUP3 LT ISZERO PUSH2 0x655 JUMPI DUP6 DUP6 DUP4 DUP2 DUP2 LT ISZERO ISZERO PUSH2 0x5D1 JUMPI INVALID JUMPDEST SWAP1 POP PUSH1 0x20 MUL ADD CALLDATALOAD PUSH20 0xFFFFFFFFFFFFFFFFFFFFFFFFFFFFFFFFFFFFFFFF AND PUSH20 0xFFFFFFFFFFFFFFFFFFFFFFFFFFFFFFFFFFFFFFFF AND PUSH2 0x8FC DUP6 DUP6 DUP6 DUP2 DUP2 LT ISZERO ISZERO PUSH2 0x615 JUMPI INVALID JUMPDEST SWAP1 POP PUSH1 0x20 MUL ADD CALLDATALOAD SWAP1 DUP2 ISZERO MUL SWAP1 PUSH1 0x40 MLOAD PUSH1 0x0 PUSH1 0x40 MLOAD DUP1 DUP4 SUB DUP2 DUP6 DUP9 DUP9 CALL SWAP4 POP POP POP POP ISZERO DUP1 ISZERO PUSH2 0x647 JUMPI RETURNDATASIZE PUSH1 0x0 DUP1 RETURNDATACOPY RETURNDATASIZE PUSH1 0x0 REVERT JUMPDEST POP DUP2 DUP1 PUSH1 0x1 ADD SWAP3 POP POP PUSH2 0x5B8 JUMP JUMPDEST ADDRESS PUSH20 0xFFFFFFFFFFFFFFFFFFFFFFFFFFFFFFFFFFFFFFFF AND BALANCE SWAP1 POP PUSH1 0x0 DUP2 GT ISZERO PUSH2 0x6C0 JUMPI CALLER PUSH20 0xFFFFFFFFFFFFFFFFFFFFFFFFFFFFFFFFFFFFFFFF AND PUSH2 0x8FC DUP3 SWAP1 DUP2 ISZERO MUL SWAP1 PUSH1 0x40 MLOAD PUSH1 0x0 PUSH1 0x40 MLOAD DUP1 DUP4 SUB DUP2 DUP6 DUP9 DUP9 CALL SWAP4 POP POP POP POP ISZERO DUP1 ISZERO PUSH2 0x6BE JUMPI RETURNDATASIZE PUSH1 0x0 DUP1 RETURNDATACOPY RETURNDATASIZE PUSH1 0x0 REVERT JUMPDEST POP JUMPDEST POP POP POP POP POP POP JUMP STOP LOG1 PUSH6 0x627A7A723058 KECCAK256 LOG0 0xe8 0xe 0x48 KECCAK256 EXTCODECOPY PUSH28 0x63576BE85FF3C16788A7499E045740C95DF2C5427913D9A792002900 "
				},
				"gasEstimates": {
					"creation": {
						"codeDepositCost": "356000",
						"executionCost": "393",
						"totalCost": "356393"
					},
					"external": {
						"disperseEther(address[],uint256[])": "infinite",
						"disperseToken(address,address[],uint256[])": "infinite",
						"disperseTokenSimple(address,address[],uint256[])": "infinite"
					}
				},
				"methodIdentifiers": {
					"disperseEther(address[],uint256[])": "e63d38ed",
					"disperseToken(address,address[],uint256[])": "c73a2d60",
					"disperseTokenSimple(address,address[],uint256[])": "51ba162c"
				}
			},
			"userdoc": {
				"methods": {}
			}
		}
	}
}