{
	"contracts/TransferOneToManyEth.sol": {
		"TransferOnetoManyEth": {
			"abi": [
				{
					"constant": false,
					"inputs": [
						{
							"name": "recipients",
							"type": "address[]"
						},
						{
							"name": "values",
							"type": "uint256[]"
						}
					],
					"name": "disperseEther",
					"outputs": [],
					"payable": true,
					"stateMutability": "payable",
					"type": "function"
				}
			],
			"devdoc": {
				"methods": {}
			},
			"evm": {
				"assembly": "    /* \"contracts/TransferOneToManyEth.sol\":26:370  contract TransferOnetoManyEth {... */\n  mstore(0x40, 0x80)\n  callvalue\n    /* \"--CODEGEN--\":8:17   */\n  dup1\n    /* \"--CODEGEN--\":5:7   */\n  iszero\n  tag_1\n  jumpi\n    /* \"--CODEGEN--\":30:31   */\n  0x0\n    /* \"--CODEGEN--\":27:28   */\n  dup1\n    /* \"--CODEGEN--\":20:32   */\n  revert\n    /* \"--CODEGEN--\":5:7   */\ntag_1:\n    /* \"contracts/TransferOneToManyEth.sol\":26:370  contract TransferOnetoManyEth {... */\n  pop\n  dataSize(sub_0)\n  dup1\n  dataOffset(sub_0)\n  0x0\n  codecopy\n  0x0\n  return\nstop\n\nsub_0: assembly {\n        /* \"contracts/TransferOneToManyEth.sol\":26:370  contract TransferOnetoManyEth {... */\n      mstore(0x40, 0x80)\n      jumpi(tag_1, lt(calldatasize, 0x4))\n      calldataload(0x0)\n      0x100000000000000000000000000000000000000000000000000000000\n      swap1\n      div\n      0xffffffff\n      and\n      dup1\n      0xe63d38ed\n      eq\n      tag_2\n      jumpi\n    tag_1:\n      0x0\n      dup1\n      revert\n        /* \"contracts/TransferOneToManyEth.sol\":62:368  function disperseEther(address[] recipients, uint256[] values) external payable {... */\n    tag_2:\n      tag_3\n      0x4\n      dup1\n      calldatasize\n      sub\n      dup2\n      add\n      swap1\n      dup1\n      dup1\n      calldataload\n      swap1\n      0x20\n      add\n      swap1\n      dup3\n      add\n      dup1\n      calldataload\n      swap1\n      0x20\n      add\n      swap2\n      swap1\n      swap2\n      swap3\n      swap4\n      swap2\n      swap3\n      swap4\n      swap1\n      dup1\n      calldataload\n      swap1\n      0x20\n      add\n      swap1\n      dup3\n      add\n      dup1\n      calldataload\n      swap1\n      0x20\n      add\n      swap2\n      swap1\n      swap2\n      swap3\n      swap4\n      swap2\n      swap3\n      swap4\n      swap1\n      pop\n      pop\n      pop\n      jump(tag_4)\n    tag_3:\n      stop\n    tag_4:\n        /* \"contracts/TransferOneToManyEth.sol\":157:166  uint256 i */\n      0x0\n        /* \"contracts/TransferOneToManyEth.sol\":255:270  uint256 balance */\n      dup1\n        /* \"contracts/TransferOneToManyEth.sol\":169:170  0 */\n      0x0\n        /* \"contracts/TransferOneToManyEth.sol\":157:170  uint256 i = 0 */\n      swap2\n      pop\n        /* \"contracts/TransferOneToManyEth.sol\":152:245  for (uint256 i = 0; i < recipients.length; i++)... */\n    tag_6:\n        /* \"contracts/TransferOneToManyEth.sol\":176:186  recipients */\n      dup6\n      dup6\n        /* \"contracts/TransferOneToManyEth.sol\":176:193  recipients.length */\n      swap1\n      pop\n        /* \"contracts/TransferOneToManyEth.sol\":172:173  i */\n      dup3\n        /* \"contracts/TransferOneToManyEth.sol\":172:193  i < recipients.length */\n      lt\n        /* \"contracts/TransferOneToManyEth.sol\":152:245  for (uint256 i = 0; i < recipients.length; i++)... */\n      iszero\n      tag_7\n      jumpi\n        /* \"contracts/TransferOneToManyEth.sol\":212:222  recipients */\n      dup6\n      dup6\n        /* \"contracts/TransferOneToManyEth.sol\":223:224  i */\n      dup4\n        /* \"contracts/TransferOneToManyEth.sol\":212:225  recipients[i] */\n      dup2\n      dup2\n      lt\n      iszero\n      iszero\n      tag_9\n      jumpi\n      invalid\n    tag_9:\n      swap1\n      pop\n      0x20\n      mul\n      add\n      calldataload\n      0xffffffffffffffffffffffffffffffffffffffff\n      and\n        /* \"contracts/TransferOneToManyEth.sol\":212:234  recipients[i].transfer */\n      0xffffffffffffffffffffffffffffffffffffffff\n      and\n        /* \"contracts/TransferOneToManyEth.sol\":212:245  recipients[i].transfer(values[i]) */\n      0x8fc\n        /* \"contracts/TransferOneToManyEth.sol\":235:241  values */\n      dup6\n      dup6\n        /* \"contracts/TransferOneToManyEth.sol\":242:243  i */\n      dup6\n        /* \"contracts/TransferOneToManyEth.sol\":235:244  values[i] */\n      dup2\n      dup2\n      lt\n      iszero\n      iszero\n      tag_10\n      jumpi\n      invalid\n    tag_10:\n      swap1\n      pop\n      0x20\n      mul\n      add\n      calldataload\n        /* \"contracts/TransferOneToManyEth.sol\":212:245  recipients[i].transfer(values[i]) */\n      swap1\n      dup2\n      iszero\n      mul\n      swap1\n      mload(0x40)\n      0x0\n      mload(0x40)\n      dup1\n      dup4\n      sub\n      dup2\n      dup6\n      dup9\n      dup9\n      call\n      swap4\n      pop\n      pop\n      pop\n      pop\n      iszero\n        /* \"--CODEGEN--\":8:17   */\n      dup1\n        /* \"--CODEGEN--\":5:7   */\n      iszero\n      tag_11\n      jumpi\n        /* \"--CODEGEN--\":45:61   */\n      returndatasize\n        /* \"--CODEGEN--\":42:43   */\n      0x0\n        /* \"--CODEGEN--\":39:40   */\n      dup1\n        /* \"--CODEGEN--\":24:62   */\n      returndatacopy\n        /* \"--CODEGEN--\":77:93   */\n      returndatasize\n        /* \"--CODEGEN--\":74:75   */\n      0x0\n        /* \"--CODEGEN--\":67:94   */\n      revert\n        /* \"--CODEGEN--\":5:7   */\n    tag_11:\n        /* \"contracts/TransferOneToManyEth.sol\":212:245  recipients[i].transfer(values[i]) */\n      pop\n        /* \"contracts/TransferOneToManyEth.sol\":195:198  i++ */\n      dup2\n      dup1\n      0x1\n      add\n      swap3\n      pop\n      pop\n        /* \"contracts/TransferOneToManyEth.sol\":152:245  for (uint256 i = 0; i < recipients.length; i++)... */\n      jump(tag_6)\n    tag_7:\n        /* \"contracts/TransferOneToManyEth.sol\":281:285  this */\n      address\n        /* \"contracts/TransferOneToManyEth.sol\":273:294  address(this).balance */\n      0xffffffffffffffffffffffffffffffffffffffff\n      and\n      balance\n        /* \"contracts/TransferOneToManyEth.sol\":255:294  uint256 balance = address(this).balance */\n      swap1\n      pop\n        /* \"contracts/TransferOneToManyEth.sol\":318:319  0 */\n      0x0\n        /* \"contracts/TransferOneToManyEth.sol\":308:315  balance */\n      dup2\n        /* \"contracts/TransferOneToManyEth.sol\":308:319  balance > 0 */\n      gt\n        /* \"contracts/TransferOneToManyEth.sol\":304:361  if (balance > 0)... */\n      iszero\n      tag_12\n      jumpi\n        /* \"contracts/TransferOneToManyEth.sol\":333:343  msg.sender */\n      caller\n        /* \"contracts/TransferOneToManyEth.sol\":333:352  msg.sender.transfer */\n      0xffffffffffffffffffffffffffffffffffffffff\n      and\n        /* \"contracts/TransferOneToManyEth.sol\":333:361  msg.sender.transfer(balance) */\n      0x8fc\n        /* \"contracts/TransferOneToManyEth.sol\":353:360  balance */\n      dup3\n        /* \"contracts/TransferOneToManyEth.sol\":333:361  msg.sender.transfer(balance) */\n      swap1\n      dup2\n      iszero\n      mul\n      swap1\n      mload(0x40)\n      0x0\n      mload(0x40)\n      dup1\n      dup4\n      sub\n      dup2\n      dup6\n      dup9\n      dup9\n      call\n      swap4\n      pop\n      pop\n      pop\n      pop\n      iszero\n        /* \"--CODEGEN--\":8:17   */\n      dup1\n        /* \"--CODEGEN--\":5:7   */\n      iszero\n      tag_13\n      jumpi\n        /* \"--CODEGEN--\":45:61   */\n      returndatasize\n        /* \"--CODEGEN--\":42:43   */\n      0x0\n        /* \"--CODEGEN--\":39:40   */\n      dup1\n        /* \"--CODEGEN--\":24:62   */\n      returndatacopy\n        /* \"--CODEGEN--\":77:93   */\n      returndatasize\n        /* \"--CODEGEN--\":74:75   */\n      0x0\n        /* \"--CODEGEN--\":67:94   */\n      revert\n        /* \"--CODEGEN--\":5:7   */\n    tag_13:\n        /* \"contracts/TransferOneToManyEth.sol\":333:361  msg.sender.transfer(balance) */\n      pop\n        /* \"contracts/TransferOneToManyEth.sol\":304:361  if (balance > 0)... */\n    tag_12:\n        /* \"contracts/TransferOneToManyEth.sol\":62:368  function disperseEther(address[] recipients, uint256[] values) external payable {... */\n      pop\n      pop\n      pop\n      pop\n      pop\n      pop\n      jump\t// out\n\n    auxdata: 0xa165627a7a72305820a70604e92422f35dad7332a17cca31199ebcb8a8a9a61dd0d7edc12c5882e9390029\n}\n",
				"bytecode": {
					"linkReferences": {},
					"object": "608060405234801561001057600080fd5b506101d0806100206000396000f300608060405260043610610041576000357c0100000000000000000000000000000000000000000000000000000000900463ffffffff168063e63d38ed14610046575b600080fd5b61008a60048036038101908080359060200190820180359060200191909192939192939080359060200190820180359060200191909192939192939050505061008c565b005b600080600091505b858590508210156101315785858381811015156100ad57fe5b9050602002013573ffffffffffffffffffffffffffffffffffffffff1673ffffffffffffffffffffffffffffffffffffffff166108fc85858581811015156100f157fe5b905060200201359081150290604051600060405180830381858888f19350505050158015610123573d6000803e3d6000fd5b508180600101925050610094565b3073ffffffffffffffffffffffffffffffffffffffff16319050600081111561019c573373ffffffffffffffffffffffffffffffffffffffff166108fc829081150290604051600060405180830381858888f1935050505015801561019a573d6000803e3d6000fd5b505b5050505050505600a165627a7a72305820a70604e92422f35dad7332a17cca31199ebcb8a8a9a61dd0d7edc12c5882e9390029",
					"opcodes": "PUSH1 0x80 PUSH1 0x40 MSTORE CALLVALUE DUP1 ISZERO PUSH2 0x10 JUMPI PUSH1 0x0 DUP1 REVERT JUMPDEST POP PUSH2 0x1D0 DUP1 PUSH2 0x20 PUSH1 0x0 CODECOPY PUSH1 0x0 RETURN STOP PUSH1 0x80 PUSH1 0x40 MSTORE PUSH1 0x4 CALLDATASIZE LT PUSH2 0x41 JUMPI PUSH1 0x0 CALLDATALOAD PUSH29 0x100000000000000000000000000000000000000000000000000000000 SWAP1 DIV PUSH4 0xFFFFFFFF AND DUP1 PUSH4 0xE63D38ED EQ PUSH2 0x46 JUMPI JUMPDEST PUSH1 0x0 DUP1 REVERT JUMPDEST PUSH2 0x8A PUSH1 0x4 DUP1 CALLDATASIZE SUB DUP2 ADD SWAP1 DUP1 DUP1 CALLDATALOAD SWAP1 PUSH1 0x20 ADD SWAP1 DUP3 ADD DUP1 CALLDATALOAD SWAP1 PUSH1 0x20 ADD SWAP2 SWAP1 SWAP2 SWAP3 SWAP4 SWAP2 SWAP3 SWAP4 SWAP1 DUP1 CALLDATALOAD SWAP1 PUSH1 0x20 ADD SWAP1 DUP3 ADD DUP1 CALLDATALOAD SWAP1 PUSH1 0x20 ADD SWAP2 SWAP1 SWAP2 SWAP3 SWAP4 SWAP2 SWAP3 SWAP4 SWAP1 POP POP POP PUSH2 0x8C JUMP JUMPDEST STOP JUMPDEST PUSH1 0x0 DUP1 PUSH1 0x0 SWAP2 POP JUMPDEST DUP6 DUP6 SWAP1 POP DUP3 LT ISZERO PUSH2 0x131 JUMPI DUP6 DUP6 DUP4 DUP2 DUP2 LT ISZERO ISZERO PUSH2 0xAD JUMPI INVALID JUMPDEST SWAP1 POP PUSH1 0x20 MUL ADD CALLDATALOAD PUSH20 0xFFFFFFFFFFFFFFFFFFFFFFFFFFFFFFFFFFFFFFFF AND PUSH20 0xFFFFFFFFFFFFFFFFFFFFFFFFFFFFFFFFFFFFFFFF AND PUSH2 0x8FC DUP6 DUP6 DUP6 DUP2 DUP2 LT ISZERO ISZERO PUSH2 0xF1 JUMPI INVALID JUMPDEST SWAP1 POP PUSH1 0x20 MUL ADD CALLDATALOAD SWAP1 DUP2 ISZERO MUL SWAP1 PUSH1 0x40 MLOAD PUSH1 0x0 PUSH1 0x40 MLOAD DUP1 DUP4 SUB DUP2 DUP6 DUP9 DUP9 CALL SWAP4 POP POP POP POP ISZERO DUP1 ISZERO PUSH2 0x123 JUMPI RETURNDATASIZE PUSH1 0x0 DUP1 RETURNDATACOPY RETURNDATASIZE PUSH1 0x0 REVERT JUMPDEST POP DUP2 DUP1 PUSH1 0x1 ADD SWAP3 POP POP PUSH2 0x94 JUMP JUMPDEST ADDRESS PUSH20 0xFFFFFFFFFFFFFFFFFFFFFFFFFFFFFFFFFFFFFFFF AND BALANCE SWAP1 POP PUSH1 0x0 DUP2 GT ISZERO PUSH2 0x19C JUMPI CALLER PUSH20 0xFFFFFFFFFFFFFFFFFFFFFFFFFFFFFFFFFFFFFFFF AND PUSH2 0x8FC DUP3 SWAP1 DUP2 ISZERO MUL SWAP1 PUSH1 0x40 MLOAD PUSH1 0x0 PUSH1 0x40 MLOAD DUP1 DUP4 SUB DUP2 DUP6 DUP9 DUP9 CALL SWAP4 POP POP POP POP ISZERO DUP1 ISZERO PUSH2 0x19A JUMPI RETURNDATASIZE PUSH1 0x0 DUP1 RETURNDATACOPY RETURNDATASIZE PUSH1 0x0 REVERT JUMPDEST POP JUMPDEST POP POP POP POP POP POP JUMP STOP LOG1 PUSH6 0x627A7A723058 KECCAK256 0xa7 MOD DIV 0xe9 0x24 0x22 RETURN 0x5d 0xad PUSH20 0x32A17CCA31199EBCB8A8A9A61DD0D7EDC12C5882 0xe9 CODECOPY STOP 0x29 "
				},
				"gasEstimates": {
					"creation": {
						"codeDepositCost": "92800",
						"executionCost": "141",
						"totalCost": "92941"
					},
					"external": {
						"disperseEther(address[],uint256[])": "infinite"
					}
				},
				"methodIdentifiers": {
					"disperseEther(address[],uint256[])": "e63d38ed"
				}
			},
			"userdoc": {
				"methods": {}
			}
		}
	}
}