{
	"contracts/TransferEthOneToMany.sol": {
		"OneToManyTransfer": {
			"abi": [
				{
					"inputs": [
						{
							"internalType": "address",
							"name": "_sender",
							"type": "address"
						},
						{
							"internalType": "address[]",
							"name": "recipients",
							"type": "address[]"
						},
						{
							"internalType": "uint256[]",
							"name": "amounts",
							"type": "uint256[]"
						}
					],
					"name": "sendEther",
					"outputs": [],
					"stateMutability": "payable",
					"type": "function"
				},
				{
					"stateMutability": "payable",
					"type": "receive"
				}
			],
			"devdoc": {
				"kind": "dev",
				"methods": {},
				"version": 1
			},
			"evm": {
				"assembly": "    /* \"contracts/TransferEthOneToMany.sol\":57:739  contract OneToManyTransfer {... */\n  mstore(0x40, 0x80)\n  callvalue\n  dup1\n  iszero\n  tag_1\n  jumpi\n  0x00\n  dup1\n  revert\ntag_1:\n  pop\n  dataSize(sub_0)\n  dup1\n  dataOffset(sub_0)\n  0x00\n  codecopy\n  0x00\n  return\nstop\n\nsub_0: assembly {\n        /* \"contracts/TransferEthOneToMany.sol\":57:739  contract OneToManyTransfer {... */\n      mstore(0x40, 0x80)\n      jumpi(tag_1, lt(calldatasize, 0x04))\n      shr(0xe0, calldataload(0x00))\n      dup1\n      0xacef7983\n      eq\n      tag_3\n      jumpi\n      jump(tag_2)\n    tag_1:\n      jumpi(tag_2, calldatasize)\n      stop\n    tag_2:\n      0x00\n      dup1\n      revert\n        /* \"contracts/TransferEthOneToMany.sol\":91:656  function sendEther(address _sender, address[] memory recipients, uint256[] memory amounts) external payable {... */\n    tag_3:\n      tag_6\n      0x04\n      dup1\n      calldatasize\n      sub\n      dup2\n      add\n      swap1\n      tag_7\n      swap2\n      swap1\n      tag_8\n      jump\t// in\n    tag_7:\n      tag_9\n      jump\t// in\n    tag_6:\n      stop\n    tag_9:\n        /* \"contracts/TransferEthOneToMany.sol\":238:245  amounts */\n      dup1\n        /* \"contracts/TransferEthOneToMany.sol\":238:252  amounts.length */\n      mload\n        /* \"contracts/TransferEthOneToMany.sol\":217:227  recipients */\n      dup3\n        /* \"contracts/TransferEthOneToMany.sol\":217:234  recipients.length */\n      mload\n        /* \"contracts/TransferEthOneToMany.sol\":217:252  recipients.length == amounts.length */\n      eq\n        /* \"contracts/TransferEthOneToMany.sol\":209:272  require(recipients.length == amounts.length, \"Invalid payload\") */\n      tag_11\n      jumpi\n      mload(0x40)\n      0x08c379a000000000000000000000000000000000000000000000000000000000\n      dup2\n      mstore\n      0x04\n      add\n      tag_12\n      swap1\n      tag_13\n      jump\t// in\n    tag_12:\n      mload(0x40)\n      dup1\n      swap2\n      sub\n      swap1\n      revert\n    tag_11:\n        /* \"contracts/TransferEthOneToMany.sol\":311:313  10 */\n      0x0a\n        /* \"contracts/TransferEthOneToMany.sol\":290:300  recipients */\n      dup3\n        /* \"contracts/TransferEthOneToMany.sol\":290:307  recipients.length */\n      mload\n        /* \"contracts/TransferEthOneToMany.sol\":290:313  recipients.length <= 10 */\n      gt\n      iszero\n        /* \"contracts/TransferEthOneToMany.sol\":282:337  require(recipients.length <= 10, \"Max length exceeded\") */\n      tag_14\n      jumpi\n      mload(0x40)\n      0x08c379a000000000000000000000000000000000000000000000000000000000\n      dup2\n      mstore\n      0x04\n      add\n      tag_15\n      swap1\n      tag_16\n      jump\t// in\n    tag_15:\n      mload(0x40)\n      dup1\n      swap2\n      sub\n      swap1\n      revert\n    tag_14:\n        /* \"contracts/TransferEthOneToMany.sol\":361:370  uint256 i */\n      0x00\n        /* \"contracts/TransferEthOneToMany.sol\":356:650  for (uint256 i = 0; i < amounts.length; i++) {... */\n    tag_17:\n        /* \"contracts/TransferEthOneToMany.sol\":380:387  amounts */\n      dup2\n        /* \"contracts/TransferEthOneToMany.sol\":380:394  amounts.length */\n      mload\n        /* \"contracts/TransferEthOneToMany.sol\":376:377  i */\n      dup2\n        /* \"contracts/TransferEthOneToMany.sol\":376:394  i < amounts.length */\n      lt\n        /* \"contracts/TransferEthOneToMany.sol\":356:650  for (uint256 i = 0; i < amounts.length; i++) {... */\n      iszero\n      tag_18\n      jumpi\n        /* \"contracts/TransferEthOneToMany.sol\":429:439  recipients */\n      dup3\n        /* \"contracts/TransferEthOneToMany.sol\":440:441  i */\n      dup2\n        /* \"contracts/TransferEthOneToMany.sol\":429:442  recipients[i] */\n      dup2\n      mload\n      dup2\n      lt\n      tag_20\n      jumpi\n      mstore(0x00, 0x4e487b7100000000000000000000000000000000000000000000000000000000)\n      mstore(0x04, 0x32)\n      revert(0x00, 0x24)\n    tag_20:\n      0x20\n      mul\n      0x20\n      add\n      add\n      mload\n        /* \"contracts/TransferEthOneToMany.sol\":418:442  _sender != recipients[i] */\n      0xffffffffffffffffffffffffffffffffffffffff\n      and\n        /* \"contracts/TransferEthOneToMany.sol\":418:425  _sender */\n      dup5\n        /* \"contracts/TransferEthOneToMany.sol\":418:442  _sender != recipients[i] */\n      0xffffffffffffffffffffffffffffffffffffffff\n      and\n      eq\n        /* \"contracts/TransferEthOneToMany.sol\":415:640  if(_sender != recipients[i]) { // Check that sender is not one of the receivers... */\n      tag_21\n      jumpi\n        /* \"contracts/TransferEthOneToMany.sol\":512:524  bool success */\n      0x00\n        /* \"contracts/TransferEthOneToMany.sol\":530:540  recipients */\n      dup4\n        /* \"contracts/TransferEthOneToMany.sol\":541:542  i */\n      dup3\n        /* \"contracts/TransferEthOneToMany.sol\":530:543  recipients[i] */\n      dup2\n      mload\n      dup2\n      lt\n      tag_22\n      jumpi\n      mstore(0x00, 0x4e487b7100000000000000000000000000000000000000000000000000000000)\n      mstore(0x04, 0x32)\n      revert(0x00, 0x24)\n    tag_22:\n      0x20\n      mul\n      0x20\n      add\n      add\n      mload\n        /* \"contracts/TransferEthOneToMany.sol\":530:548  recipients[i].call */\n      0xffffffffffffffffffffffffffffffffffffffff\n      and\n        /* \"contracts/TransferEthOneToMany.sol\":556:563  amounts */\n      dup4\n        /* \"contracts/TransferEthOneToMany.sol\":564:565  i */\n      dup4\n        /* \"contracts/TransferEthOneToMany.sol\":556:566  amounts[i] */\n      dup2\n      mload\n      dup2\n      lt\n      tag_23\n      jumpi\n      mstore(0x00, 0x4e487b7100000000000000000000000000000000000000000000000000000000)\n      mstore(0x04, 0x32)\n      revert(0x00, 0x24)\n    tag_23:\n      0x20\n      mul\n      0x20\n      add\n      add\n      mload\n        /* \"contracts/TransferEthOneToMany.sol\":530:571  recipients[i].call{value: amounts[i]}(\"\") */\n      mload(0x40)\n      tag_24\n      swap1\n      tag_25\n      jump\t// in\n    tag_24:\n      0x00\n      mload(0x40)\n      dup1\n      dup4\n      sub\n      dup2\n      dup6\n      dup8\n      gas\n      call\n      swap3\n      pop\n      pop\n      pop\n      returndatasize\n      dup1\n      0x00\n      dup2\n      eq\n      tag_28\n      jumpi\n      mload(0x40)\n      swap2\n      pop\n      and(add(returndatasize, 0x3f), not(0x1f))\n      dup3\n      add\n      0x40\n      mstore\n      returndatasize\n      dup3\n      mstore\n      returndatasize\n      0x00\n      0x20\n      dup5\n      add\n      returndatacopy\n      jump(tag_27)\n    tag_28:\n      0x60\n      swap2\n      pop\n    tag_27:\n      pop\n        /* \"contracts/TransferEthOneToMany.sol\":511:571  (bool success, ) = recipients[i].call{value: amounts[i]}(\"\") */\n      pop\n      swap1\n      pop\n        /* \"contracts/TransferEthOneToMany.sol\":598:605  success */\n      dup1\n        /* \"contracts/TransferEthOneToMany.sol\":590:625  require(success, \"Transfer failed\") */\n      tag_29\n      jumpi\n      mload(0x40)\n      0x08c379a000000000000000000000000000000000000000000000000000000000\n      dup2\n      mstore\n      0x04\n      add\n      tag_30\n      swap1\n      tag_31\n      jump\t// in\n    tag_30:\n      mload(0x40)\n      dup1\n      swap2\n      sub\n      swap1\n      revert\n    tag_29:\n        /* \"contracts/TransferEthOneToMany.sol\":415:640  if(_sender != recipients[i]) { // Check that sender is not one of the receivers... */\n      pop\n    tag_21:\n        /* \"contracts/TransferEthOneToMany.sol\":396:399  i++ */\n      dup1\n      dup1\n      tag_32\n      swap1\n      tag_33\n      jump\t// in\n    tag_32:\n      swap2\n      pop\n      pop\n        /* \"contracts/TransferEthOneToMany.sol\":356:650  for (uint256 i = 0; i < amounts.length; i++) {... */\n      jump(tag_17)\n    tag_18:\n      pop\n        /* \"contracts/TransferEthOneToMany.sol\":91:656  function sendEther(address _sender, address[] memory recipients, uint256[] memory amounts) external payable {... */\n      pop\n      pop\n      pop\n      jump\t// out\n        /* \"#utility.yul\":24:646   */\n    tag_35:\n      0x00\n        /* \"#utility.yul\":145:225   */\n      tag_37\n        /* \"#utility.yul\":160:224   */\n      tag_38\n        /* \"#utility.yul\":217:223   */\n      dup5\n        /* \"#utility.yul\":160:224   */\n      tag_39\n      jump\t// in\n    tag_38:\n        /* \"#utility.yul\":145:225   */\n      tag_40\n      jump\t// in\n    tag_37:\n        /* \"#utility.yul\":136:225   */\n      swap1\n      pop\n        /* \"#utility.yul\":245:250   */\n      dup1\n        /* \"#utility.yul\":273:279   */\n      dup4\n        /* \"#utility.yul\":266:271   */\n      dup3\n        /* \"#utility.yul\":259:280   */\n      mstore\n        /* \"#utility.yul\":299:303   */\n      0x20\n        /* \"#utility.yul\":292:297   */\n      dup3\n        /* \"#utility.yul\":288:304   */\n      add\n        /* \"#utility.yul\":281:304   */\n      swap1\n      pop\n        /* \"#utility.yul\":324:330   */\n      dup3\n        /* \"#utility.yul\":374:377   */\n      dup6\n        /* \"#utility.yul\":366:370   */\n      0x20\n        /* \"#utility.yul\":358:364   */\n      dup7\n        /* \"#utility.yul\":354:371   */\n      mul\n        /* \"#utility.yul\":349:352   */\n      dup3\n        /* \"#utility.yul\":345:372   */\n      add\n        /* \"#utility.yul\":342:378   */\n      gt\n        /* \"#utility.yul\":339:341   */\n      iszero\n      tag_41\n      jumpi\n        /* \"#utility.yul\":391:392   */\n      0x00\n        /* \"#utility.yul\":388:389   */\n      dup1\n        /* \"#utility.yul\":381:393   */\n      revert\n        /* \"#utility.yul\":339:341   */\n    tag_41:\n        /* \"#utility.yul\":419:420   */\n      0x00\n        /* \"#utility.yul\":404:640   */\n    tag_42:\n        /* \"#utility.yul\":429:435   */\n      dup6\n        /* \"#utility.yul\":426:427   */\n      dup2\n        /* \"#utility.yul\":423:436   */\n      lt\n        /* \"#utility.yul\":404:640   */\n      iszero\n      tag_44\n      jumpi\n        /* \"#utility.yul\":496:499   */\n      dup2\n        /* \"#utility.yul\":524:561   */\n      tag_45\n        /* \"#utility.yul\":557:560   */\n      dup9\n        /* \"#utility.yul\":545:555   */\n      dup3\n        /* \"#utility.yul\":524:561   */\n      tag_46\n      jump\t// in\n    tag_45:\n        /* \"#utility.yul\":519:522   */\n      dup5\n        /* \"#utility.yul\":512:562   */\n      mstore\n        /* \"#utility.yul\":591:595   */\n      0x20\n        /* \"#utility.yul\":586:589   */\n      dup5\n        /* \"#utility.yul\":582:596   */\n      add\n        /* \"#utility.yul\":575:596   */\n      swap4\n      pop\n        /* \"#utility.yul\":625:629   */\n      0x20\n        /* \"#utility.yul\":620:623   */\n      dup4\n        /* \"#utility.yul\":616:630   */\n      add\n        /* \"#utility.yul\":609:630   */\n      swap3\n      pop\n        /* \"#utility.yul\":464:640   */\n      pop\n        /* \"#utility.yul\":451:452   */\n      0x01\n        /* \"#utility.yul\":448:449   */\n      dup2\n        /* \"#utility.yul\":444:453   */\n      add\n        /* \"#utility.yul\":439:453   */\n      swap1\n      pop\n        /* \"#utility.yul\":404:640   */\n      jump(tag_42)\n    tag_44:\n        /* \"#utility.yul\":408:422   */\n      pop\n        /* \"#utility.yul\":126:646   */\n      pop\n      pop\n      swap4\n      swap3\n      pop\n      pop\n      pop\n      jump\t// out\n        /* \"#utility.yul\":669:1291   */\n    tag_47:\n      0x00\n        /* \"#utility.yul\":790:870   */\n      tag_49\n        /* \"#utility.yul\":805:869   */\n      tag_50\n        /* \"#utility.yul\":862:868   */\n      dup5\n        /* \"#utility.yul\":805:869   */\n      tag_51\n      jump\t// in\n    tag_50:\n        /* \"#utility.yul\":790:870   */\n      tag_40\n      jump\t// in\n    tag_49:\n        /* \"#utility.yul\":781:870   */\n      swap1\n      pop\n        /* \"#utility.yul\":890:895   */\n      dup1\n        /* \"#utility.yul\":918:924   */\n      dup4\n        /* \"#utility.yul\":911:916   */\n      dup3\n        /* \"#utility.yul\":904:925   */\n      mstore\n        /* \"#utility.yul\":944:948   */\n      0x20\n        /* \"#utility.yul\":937:942   */\n      dup3\n        /* \"#utility.yul\":933:949   */\n      add\n        /* \"#utility.yul\":926:949   */\n      swap1\n      pop\n        /* \"#utility.yul\":969:975   */\n      dup3\n        /* \"#utility.yul\":1019:1022   */\n      dup6\n        /* \"#utility.yul\":1011:1015   */\n      0x20\n        /* \"#utility.yul\":1003:1009   */\n      dup7\n        /* \"#utility.yul\":999:1016   */\n      mul\n        /* \"#utility.yul\":994:997   */\n      dup3\n        /* \"#utility.yul\":990:1017   */\n      add\n        /* \"#utility.yul\":987:1023   */\n      gt\n        /* \"#utility.yul\":984:986   */\n      iszero\n      tag_52\n      jumpi\n        /* \"#utility.yul\":1036:1037   */\n      0x00\n        /* \"#utility.yul\":1033:1034   */\n      dup1\n        /* \"#utility.yul\":1026:1038   */\n      revert\n        /* \"#utility.yul\":984:986   */\n    tag_52:\n        /* \"#utility.yul\":1064:1065   */\n      0x00\n        /* \"#utility.yul\":1049:1285   */\n    tag_53:\n        /* \"#utility.yul\":1074:1080   */\n      dup6\n        /* \"#utility.yul\":1071:1072   */\n      dup2\n        /* \"#utility.yul\":1068:1081   */\n      lt\n        /* \"#utility.yul\":1049:1285   */\n      iszero\n      tag_55\n      jumpi\n        /* \"#utility.yul\":1141:1144   */\n      dup2\n        /* \"#utility.yul\":1169:1206   */\n      tag_56\n        /* \"#utility.yul\":1202:1205   */\n      dup9\n        /* \"#utility.yul\":1190:1200   */\n      dup3\n        /* \"#utility.yul\":1169:1206   */\n      tag_57\n      jump\t// in\n    tag_56:\n        /* \"#utility.yul\":1164:1167   */\n      dup5\n        /* \"#utility.yul\":1157:1207   */\n      mstore\n        /* \"#utility.yul\":1236:1240   */\n      0x20\n        /* \"#utility.yul\":1231:1234   */\n      dup5\n        /* \"#utility.yul\":1227:1241   */\n      add\n        /* \"#utility.yul\":1220:1241   */\n      swap4\n      pop\n        /* \"#utility.yul\":1270:1274   */\n      0x20\n        /* \"#utility.yul\":1265:1268   */\n      dup4\n        /* \"#utility.yul\":1261:1275   */\n      add\n        /* \"#utility.yul\":1254:1275   */\n      swap3\n      pop\n        /* \"#utility.yul\":1109:1285   */\n      pop\n        /* \"#utility.yul\":1096:1097   */\n      0x01\n        /* \"#utility.yul\":1093:1094   */\n      dup2\n        /* \"#utility.yul\":1089:1098   */\n      add\n        /* \"#utility.yul\":1084:1098   */\n      swap1\n      pop\n        /* \"#utility.yul\":1049:1285   */\n      jump(tag_53)\n    tag_55:\n        /* \"#utility.yul\":1053:1067   */\n      pop\n        /* \"#utility.yul\":771:1291   */\n      pop\n      pop\n      swap4\n      swap3\n      pop\n      pop\n      pop\n      jump\t// out\n        /* \"#utility.yul\":1297:1436   */\n    tag_46:\n      0x00\n        /* \"#utility.yul\":1381:1387   */\n      dup2\n        /* \"#utility.yul\":1368:1388   */\n      calldataload\n        /* \"#utility.yul\":1359:1388   */\n      swap1\n      pop\n        /* \"#utility.yul\":1397:1430   */\n      tag_59\n        /* \"#utility.yul\":1424:1429   */\n      dup2\n        /* \"#utility.yul\":1397:1430   */\n      tag_60\n      jump\t// in\n    tag_59:\n        /* \"#utility.yul\":1349:1436   */\n      swap3\n      swap2\n      pop\n      pop\n      jump\t// out\n        /* \"#utility.yul\":1459:1762   */\n    tag_61:\n      0x00\n        /* \"#utility.yul\":1579:1582   */\n      dup3\n        /* \"#utility.yul\":1572:1576   */\n      0x1f\n        /* \"#utility.yul\":1564:1570   */\n      dup4\n        /* \"#utility.yul\":1560:1577   */\n      add\n        /* \"#utility.yul\":1556:1583   */\n      slt\n        /* \"#utility.yul\":1546:1548   */\n      tag_63\n      jumpi\n        /* \"#utility.yul\":1597:1598   */\n      0x00\n        /* \"#utility.yul\":1594:1595   */\n      dup1\n        /* \"#utility.yul\":1587:1599   */\n      revert\n        /* \"#utility.yul\":1546:1548   */\n    tag_63:\n        /* \"#utility.yul\":1637:1643   */\n      dup2\n        /* \"#utility.yul\":1624:1644   */\n      calldataload\n        /* \"#utility.yul\":1662:1756   */\n      tag_64\n        /* \"#utility.yul\":1752:1755   */\n      dup5\n        /* \"#utility.yul\":1744:1750   */\n      dup3\n        /* \"#utility.yul\":1737:1741   */\n      0x20\n        /* \"#utility.yul\":1729:1735   */\n      dup7\n        /* \"#utility.yul\":1725:1742   */\n      add\n        /* \"#utility.yul\":1662:1756   */\n      tag_35\n      jump\t// in\n    tag_64:\n        /* \"#utility.yul\":1653:1756   */\n      swap2\n      pop\n        /* \"#utility.yul\":1536:1762   */\n      pop\n      swap3\n      swap2\n      pop\n      pop\n      jump\t// out\n        /* \"#utility.yul\":1785:2088   */\n    tag_65:\n      0x00\n        /* \"#utility.yul\":1905:1908   */\n      dup3\n        /* \"#utility.yul\":1898:1902   */\n      0x1f\n        /* \"#utility.yul\":1890:1896   */\n      dup4\n        /* \"#utility.yul\":1886:1903   */\n      add\n        /* \"#utility.yul\":1882:1909   */\n      slt\n        /* \"#utility.yul\":1872:1874   */\n      tag_67\n      jumpi\n        /* \"#utility.yul\":1923:1924   */\n      0x00\n        /* \"#utility.yul\":1920:1921   */\n      dup1\n        /* \"#utility.yul\":1913:1925   */\n      revert\n        /* \"#utility.yul\":1872:1874   */\n    tag_67:\n        /* \"#utility.yul\":1963:1969   */\n      dup2\n        /* \"#utility.yul\":1950:1970   */\n      calldataload\n        /* \"#utility.yul\":1988:2082   */\n      tag_68\n        /* \"#utility.yul\":2078:2081   */\n      dup5\n        /* \"#utility.yul\":2070:2076   */\n      dup3\n        /* \"#utility.yul\":2063:2067   */\n      0x20\n        /* \"#utility.yul\":2055:2061   */\n      dup7\n        /* \"#utility.yul\":2051:2068   */\n      add\n        /* \"#utility.yul\":1988:2082   */\n      tag_47\n      jump\t// in\n    tag_68:\n        /* \"#utility.yul\":1979:2082   */\n      swap2\n      pop\n        /* \"#utility.yul\":1862:2088   */\n      pop\n      swap3\n      swap2\n      pop\n      pop\n      jump\t// out\n        /* \"#utility.yul\":2094:2233   */\n    tag_57:\n      0x00\n        /* \"#utility.yul\":2178:2184   */\n      dup2\n        /* \"#utility.yul\":2165:2185   */\n      calldataload\n        /* \"#utility.yul\":2156:2185   */\n      swap1\n      pop\n        /* \"#utility.yul\":2194:2227   */\n      tag_70\n        /* \"#utility.yul\":2221:2226   */\n      dup2\n        /* \"#utility.yul\":2194:2227   */\n      tag_71\n      jump\t// in\n    tag_70:\n        /* \"#utility.yul\":2146:2233   */\n      swap3\n      swap2\n      pop\n      pop\n      jump\t// out\n        /* \"#utility.yul\":2239:3077   */\n    tag_8:\n      0x00\n      dup1\n      0x00\n        /* \"#utility.yul\":2431:2433   */\n      0x60\n        /* \"#utility.yul\":2419:2428   */\n      dup5\n        /* \"#utility.yul\":2410:2417   */\n      dup7\n        /* \"#utility.yul\":2406:2429   */\n      sub\n        /* \"#utility.yul\":2402:2434   */\n      slt\n        /* \"#utility.yul\":2399:2401   */\n      iszero\n      tag_73\n      jumpi\n        /* \"#utility.yul\":2447:2448   */\n      0x00\n        /* \"#utility.yul\":2444:2445   */\n      dup1\n        /* \"#utility.yul\":2437:2449   */\n      revert\n        /* \"#utility.yul\":2399:2401   */\n    tag_73:\n        /* \"#utility.yul\":2490:2491   */\n      0x00\n        /* \"#utility.yul\":2515:2568   */\n      tag_74\n        /* \"#utility.yul\":2560:2567   */\n      dup7\n        /* \"#utility.yul\":2551:2557   */\n      dup3\n        /* \"#utility.yul\":2540:2549   */\n      dup8\n        /* \"#utility.yul\":2536:2558   */\n      add\n        /* \"#utility.yul\":2515:2568   */\n      tag_46\n      jump\t// in\n    tag_74:\n        /* \"#utility.yul\":2505:2568   */\n      swap4\n      pop\n        /* \"#utility.yul\":2461:2578   */\n      pop\n        /* \"#utility.yul\":2645:2647   */\n      0x20\n        /* \"#utility.yul\":2634:2643   */\n      dup5\n        /* \"#utility.yul\":2630:2648   */\n      add\n        /* \"#utility.yul\":2617:2649   */\n      calldataload\n        /* \"#utility.yul\":2676:2694   */\n      0xffffffffffffffff\n        /* \"#utility.yul\":2668:2674   */\n      dup2\n        /* \"#utility.yul\":2665:2695   */\n      gt\n        /* \"#utility.yul\":2662:2664   */\n      iszero\n      tag_75\n      jumpi\n        /* \"#utility.yul\":2708:2709   */\n      0x00\n        /* \"#utility.yul\":2705:2706   */\n      dup1\n        /* \"#utility.yul\":2698:2710   */\n      revert\n        /* \"#utility.yul\":2662:2664   */\n    tag_75:\n        /* \"#utility.yul\":2736:2814   */\n      tag_76\n        /* \"#utility.yul\":2806:2813   */\n      dup7\n        /* \"#utility.yul\":2797:2803   */\n      dup3\n        /* \"#utility.yul\":2786:2795   */\n      dup8\n        /* \"#utility.yul\":2782:2804   */\n      add\n        /* \"#utility.yul\":2736:2814   */\n      tag_61\n      jump\t// in\n    tag_76:\n        /* \"#utility.yul\":2726:2814   */\n      swap3\n      pop\n        /* \"#utility.yul\":2588:2824   */\n      pop\n        /* \"#utility.yul\":2891:2893   */\n      0x40\n        /* \"#utility.yul\":2880:2889   */\n      dup5\n        /* \"#utility.yul\":2876:2894   */\n      add\n        /* \"#utility.yul\":2863:2895   */\n      calldataload\n        /* \"#utility.yul\":2922:2940   */\n      0xffffffffffffffff\n        /* \"#utility.yul\":2914:2920   */\n      dup2\n        /* \"#utility.yul\":2911:2941   */\n      gt\n        /* \"#utility.yul\":2908:2910   */\n      iszero\n      tag_77\n      jumpi\n        /* \"#utility.yul\":2954:2955   */\n      0x00\n        /* \"#utility.yul\":2951:2952   */\n      dup1\n        /* \"#utility.yul\":2944:2956   */\n      revert\n        /* \"#utility.yul\":2908:2910   */\n    tag_77:\n        /* \"#utility.yul\":2982:3060   */\n      tag_78\n        /* \"#utility.yul\":3052:3059   */\n      dup7\n        /* \"#utility.yul\":3043:3049   */\n      dup3\n        /* \"#utility.yul\":3032:3041   */\n      dup8\n        /* \"#utility.yul\":3028:3050   */\n      add\n        /* \"#utility.yul\":2982:3060   */\n      tag_65\n      jump\t// in\n    tag_78:\n        /* \"#utility.yul\":2972:3060   */\n      swap2\n      pop\n        /* \"#utility.yul\":2834:3070   */\n      pop\n        /* \"#utility.yul\":2389:3077   */\n      swap3\n      pop\n      swap3\n      pop\n      swap3\n      jump\t// out\n        /* \"#utility.yul\":3083:3400   */\n    tag_79:\n      0x00\n        /* \"#utility.yul\":3246:3313   */\n      tag_81\n        /* \"#utility.yul\":3310:3312   */\n      0x13\n        /* \"#utility.yul\":3305:3308   */\n      dup4\n        /* \"#utility.yul\":3246:3313   */\n      tag_82\n      jump\t// in\n    tag_81:\n        /* \"#utility.yul\":3239:3313   */\n      swap2\n      pop\n        /* \"#utility.yul\":3343:3364   */\n      0x4d6178206c656e67746820657863656564656400000000000000000000000000\n        /* \"#utility.yul\":3339:3340   */\n      0x00\n        /* \"#utility.yul\":3334:3337   */\n      dup4\n        /* \"#utility.yul\":3330:3341   */\n      add\n        /* \"#utility.yul\":3323:3365   */\n      mstore\n        /* \"#utility.yul\":3391:3393   */\n      0x20\n        /* \"#utility.yul\":3386:3389   */\n      dup3\n        /* \"#utility.yul\":3382:3394   */\n      add\n        /* \"#utility.yul\":3375:3394   */\n      swap1\n      pop\n        /* \"#utility.yul\":3229:3400   */\n      swap2\n      swap1\n      pop\n      jump\t// out\n        /* \"#utility.yul\":3406:3719   */\n    tag_83:\n      0x00\n        /* \"#utility.yul\":3569:3636   */\n      tag_85\n        /* \"#utility.yul\":3633:3635   */\n      0x0f\n        /* \"#utility.yul\":3628:3631   */\n      dup4\n        /* \"#utility.yul\":3569:3636   */\n      tag_82\n      jump\t// in\n    tag_85:\n        /* \"#utility.yul\":3562:3636   */\n      swap2\n      pop\n        /* \"#utility.yul\":3666:3683   */\n      0x5472616e73666572206661696c65640000000000000000000000000000000000\n        /* \"#utility.yul\":3662:3663   */\n      0x00\n        /* \"#utility.yul\":3657:3660   */\n      dup4\n        /* \"#utility.yul\":3653:3664   */\n      add\n        /* \"#utility.yul\":3646:3684   */\n      mstore\n        /* \"#utility.yul\":3710:3712   */\n      0x20\n        /* \"#utility.yul\":3705:3708   */\n      dup3\n        /* \"#utility.yul\":3701:3713   */\n      add\n        /* \"#utility.yul\":3694:3713   */\n      swap1\n      pop\n        /* \"#utility.yul\":3552:3719   */\n      swap2\n      swap1\n      pop\n      jump\t// out\n        /* \"#utility.yul\":3725:4038   */\n    tag_86:\n      0x00\n        /* \"#utility.yul\":3888:3955   */\n      tag_88\n        /* \"#utility.yul\":3952:3954   */\n      0x0f\n        /* \"#utility.yul\":3947:3950   */\n      dup4\n        /* \"#utility.yul\":3888:3955   */\n      tag_82\n      jump\t// in\n    tag_88:\n        /* \"#utility.yul\":3881:3955   */\n      swap2\n      pop\n        /* \"#utility.yul\":3985:4002   */\n      0x496e76616c6964207061796c6f61640000000000000000000000000000000000\n        /* \"#utility.yul\":3981:3982   */\n      0x00\n        /* \"#utility.yul\":3976:3979   */\n      dup4\n        /* \"#utility.yul\":3972:3983   */\n      add\n        /* \"#utility.yul\":3965:4003   */\n      mstore\n        /* \"#utility.yul\":4029:4031   */\n      0x20\n        /* \"#utility.yul\":4024:4027   */\n      dup3\n        /* \"#utility.yul\":4020:4032   */\n      add\n        /* \"#utility.yul\":4013:4032   */\n      swap1\n      pop\n        /* \"#utility.yul\":3871:4038   */\n      swap2\n      swap1\n      pop\n      jump\t// out\n        /* \"#utility.yul\":4044:4341   */\n    tag_89:\n      0x00\n        /* \"#utility.yul\":4224:4307   */\n      tag_91\n        /* \"#utility.yul\":4305:4306   */\n      0x00\n        /* \"#utility.yul\":4300:4303   */\n      dup4\n        /* \"#utility.yul\":4224:4307   */\n      tag_92\n      jump\t// in\n    tag_91:\n        /* \"#utility.yul\":4217:4307   */\n      swap2\n      pop\n        /* \"#utility.yul\":4333:4334   */\n      0x00\n        /* \"#utility.yul\":4328:4331   */\n      dup3\n        /* \"#utility.yul\":4324:4335   */\n      add\n        /* \"#utility.yul\":4317:4335   */\n      swap1\n      pop\n        /* \"#utility.yul\":4207:4341   */\n      swap2\n      swap1\n      pop\n      jump\t// out\n        /* \"#utility.yul\":4347:4726   */\n    tag_25:\n      0x00\n        /* \"#utility.yul\":4553:4700   */\n      tag_94\n        /* \"#utility.yul\":4696:4699   */\n      dup3\n        /* \"#utility.yul\":4553:4700   */\n      tag_89\n      jump\t// in\n    tag_94:\n        /* \"#utility.yul\":4546:4700   */\n      swap2\n      pop\n        /* \"#utility.yul\":4717:4720   */\n      dup2\n        /* \"#utility.yul\":4710:4720   */\n      swap1\n      pop\n        /* \"#utility.yul\":4535:4726   */\n      swap2\n      swap1\n      pop\n      jump\t// out\n        /* \"#utility.yul\":4732:5151   */\n    tag_16:\n      0x00\n        /* \"#utility.yul\":4936:4938   */\n      0x20\n        /* \"#utility.yul\":4925:4934   */\n      dup3\n        /* \"#utility.yul\":4921:4939   */\n      add\n        /* \"#utility.yul\":4913:4939   */\n      swap1\n      pop\n        /* \"#utility.yul\":4985:4994   */\n      dup2\n        /* \"#utility.yul\":4979:4983   */\n      dup2\n        /* \"#utility.yul\":4975:4995   */\n      sub\n        /* \"#utility.yul\":4971:4972   */\n      0x00\n        /* \"#utility.yul\":4960:4969   */\n      dup4\n        /* \"#utility.yul\":4956:4973   */\n      add\n        /* \"#utility.yul\":4949:4996   */\n      mstore\n        /* \"#utility.yul\":5013:5144   */\n      tag_96\n        /* \"#utility.yul\":5139:5143   */\n      dup2\n        /* \"#utility.yul\":5013:5144   */\n      tag_79\n      jump\t// in\n    tag_96:\n        /* \"#utility.yul\":5005:5144   */\n      swap1\n      pop\n        /* \"#utility.yul\":4903:5151   */\n      swap2\n      swap1\n      pop\n      jump\t// out\n        /* \"#utility.yul\":5157:5576   */\n    tag_31:\n      0x00\n        /* \"#utility.yul\":5361:5363   */\n      0x20\n        /* \"#utility.yul\":5350:5359   */\n      dup3\n        /* \"#utility.yul\":5346:5364   */\n      add\n        /* \"#utility.yul\":5338:5364   */\n      swap1\n      pop\n        /* \"#utility.yul\":5410:5419   */\n      dup2\n        /* \"#utility.yul\":5404:5408   */\n      dup2\n        /* \"#utility.yul\":5400:5420   */\n      sub\n        /* \"#utility.yul\":5396:5397   */\n      0x00\n        /* \"#utility.yul\":5385:5394   */\n      dup4\n        /* \"#utility.yul\":5381:5398   */\n      add\n        /* \"#utility.yul\":5374:5421   */\n      mstore\n        /* \"#utility.yul\":5438:5569   */\n      tag_98\n        /* \"#utility.yul\":5564:5568   */\n      dup2\n        /* \"#utility.yul\":5438:5569   */\n      tag_83\n      jump\t// in\n    tag_98:\n        /* \"#utility.yul\":5430:5569   */\n      swap1\n      pop\n        /* \"#utility.yul\":5328:5576   */\n      swap2\n      swap1\n      pop\n      jump\t// out\n        /* \"#utility.yul\":5582:6001   */\n    tag_13:\n      0x00\n        /* \"#utility.yul\":5786:5788   */\n      0x20\n        /* \"#utility.yul\":5775:5784   */\n      dup3\n        /* \"#utility.yul\":5771:5789   */\n      add\n        /* \"#utility.yul\":5763:5789   */\n      swap1\n      pop\n        /* \"#utility.yul\":5835:5844   */\n      dup2\n        /* \"#utility.yul\":5829:5833   */\n      dup2\n        /* \"#utility.yul\":5825:5845   */\n      sub\n        /* \"#utility.yul\":5821:5822   */\n      0x00\n        /* \"#utility.yul\":5810:5819   */\n      dup4\n        /* \"#utility.yul\":5806:5823   */\n      add\n        /* \"#utility.yul\":5799:5846   */\n      mstore\n        /* \"#utility.yul\":5863:5994   */\n      tag_100\n        /* \"#utility.yul\":5989:5993   */\n      dup2\n        /* \"#utility.yul\":5863:5994   */\n      tag_86\n      jump\t// in\n    tag_100:\n        /* \"#utility.yul\":5855:5994   */\n      swap1\n      pop\n        /* \"#utility.yul\":5753:6001   */\n      swap2\n      swap1\n      pop\n      jump\t// out\n        /* \"#utility.yul\":6007:6290   */\n    tag_40:\n      0x00\n        /* \"#utility.yul\":6073:6075   */\n      0x40\n        /* \"#utility.yul\":6067:6076   */\n      mload\n        /* \"#utility.yul\":6057:6076   */\n      swap1\n      pop\n        /* \"#utility.yul\":6115:6119   */\n      dup2\n        /* \"#utility.yul\":6107:6113   */\n      dup2\n        /* \"#utility.yul\":6103:6120   */\n      add\n        /* \"#utility.yul\":6222:6228   */\n      dup2\n        /* \"#utility.yul\":6210:6220   */\n      dup2\n        /* \"#utility.yul\":6207:6229   */\n      lt\n        /* \"#utility.yul\":6186:6204   */\n      0xffffffffffffffff\n        /* \"#utility.yul\":6174:6184   */\n      dup3\n        /* \"#utility.yul\":6171:6205   */\n      gt\n        /* \"#utility.yul\":6168:6230   */\n      or\n        /* \"#utility.yul\":6165:6167   */\n      iszero\n      tag_102\n      jumpi\n        /* \"#utility.yul\":6233:6251   */\n      tag_103\n      tag_104\n      jump\t// in\n    tag_103:\n        /* \"#utility.yul\":6165:6167   */\n    tag_102:\n        /* \"#utility.yul\":6273:6283   */\n      dup1\n        /* \"#utility.yul\":6269:6271   */\n      0x40\n        /* \"#utility.yul\":6262:6284   */\n      mstore\n        /* \"#utility.yul\":6047:6290   */\n      pop\n      swap2\n      swap1\n      pop\n      jump\t// out\n        /* \"#utility.yul\":6296:6607   */\n    tag_39:\n      0x00\n        /* \"#utility.yul\":6463:6481   */\n      0xffffffffffffffff\n        /* \"#utility.yul\":6455:6461   */\n      dup3\n        /* \"#utility.yul\":6452:6482   */\n      gt\n        /* \"#utility.yul\":6449:6451   */\n      iszero\n      tag_106\n      jumpi\n        /* \"#utility.yul\":6485:6503   */\n      tag_107\n      tag_104\n      jump\t// in\n    tag_107:\n        /* \"#utility.yul\":6449:6451   */\n    tag_106:\n        /* \"#utility.yul\":6535:6539   */\n      0x20\n        /* \"#utility.yul\":6527:6533   */\n      dup3\n        /* \"#utility.yul\":6523:6540   */\n      mul\n        /* \"#utility.yul\":6515:6540   */\n      swap1\n      pop\n        /* \"#utility.yul\":6595:6599   */\n      0x20\n        /* \"#utility.yul\":6589:6593   */\n      dup2\n        /* \"#utility.yul\":6585:6600   */\n      add\n        /* \"#utility.yul\":6577:6600   */\n      swap1\n      pop\n        /* \"#utility.yul\":6378:6607   */\n      swap2\n      swap1\n      pop\n      jump\t// out\n        /* \"#utility.yul\":6613:6924   */\n    tag_51:\n      0x00\n        /* \"#utility.yul\":6780:6798   */\n      0xffffffffffffffff\n        /* \"#utility.yul\":6772:6778   */\n      dup3\n        /* \"#utility.yul\":6769:6799   */\n      gt\n        /* \"#utility.yul\":6766:6768   */\n      iszero\n      tag_109\n      jumpi\n        /* \"#utility.yul\":6802:6820   */\n      tag_110\n      tag_104\n      jump\t// in\n    tag_110:\n        /* \"#utility.yul\":6766:6768   */\n    tag_109:\n        /* \"#utility.yul\":6852:6856   */\n      0x20\n        /* \"#utility.yul\":6844:6850   */\n      dup3\n        /* \"#utility.yul\":6840:6857   */\n      mul\n        /* \"#utility.yul\":6832:6857   */\n      swap1\n      pop\n        /* \"#utility.yul\":6912:6916   */\n      0x20\n        /* \"#utility.yul\":6906:6910   */\n      dup2\n        /* \"#utility.yul\":6902:6917   */\n      add\n        /* \"#utility.yul\":6894:6917   */\n      swap1\n      pop\n        /* \"#utility.yul\":6695:6924   */\n      swap2\n      swap1\n      pop\n      jump\t// out\n        /* \"#utility.yul\":6930:7077   */\n    tag_92:\n      0x00\n        /* \"#utility.yul\":7068:7071   */\n      dup2\n        /* \"#utility.yul\":7053:7071   */\n      swap1\n      pop\n        /* \"#utility.yul\":7043:7077   */\n      swap3\n      swap2\n      pop\n      pop\n      jump\t// out\n        /* \"#utility.yul\":7083:7252   */\n    tag_82:\n      0x00\n        /* \"#utility.yul\":7201:7207   */\n      dup3\n        /* \"#utility.yul\":7196:7199   */\n      dup3\n        /* \"#utility.yul\":7189:7208   */\n      mstore\n        /* \"#utility.yul\":7241:7245   */\n      0x20\n        /* \"#utility.yul\":7236:7239   */\n      dup3\n        /* \"#utility.yul\":7232:7246   */\n      add\n        /* \"#utility.yul\":7217:7246   */\n      swap1\n      pop\n        /* \"#utility.yul\":7179:7252   */\n      swap3\n      swap2\n      pop\n      pop\n      jump\t// out\n        /* \"#utility.yul\":7258:7354   */\n    tag_113:\n      0x00\n        /* \"#utility.yul\":7324:7348   */\n      tag_115\n        /* \"#utility.yul\":7342:7347   */\n      dup3\n        /* \"#utility.yul\":7324:7348   */\n      tag_116\n      jump\t// in\n    tag_115:\n        /* \"#utility.yul\":7313:7348   */\n      swap1\n      pop\n        /* \"#utility.yul\":7303:7354   */\n      swap2\n      swap1\n      pop\n      jump\t// out\n        /* \"#utility.yul\":7360:7486   */\n    tag_116:\n      0x00\n        /* \"#utility.yul\":7437:7479   */\n      0xffffffffffffffffffffffffffffffffffffffff\n        /* \"#utility.yul\":7430:7435   */\n      dup3\n        /* \"#utility.yul\":7426:7480   */\n      and\n        /* \"#utility.yul\":7415:7480   */\n      swap1\n      pop\n        /* \"#utility.yul\":7405:7486   */\n      swap2\n      swap1\n      pop\n      jump\t// out\n        /* \"#utility.yul\":7492:7569   */\n    tag_118:\n      0x00\n        /* \"#utility.yul\":7558:7563   */\n      dup2\n        /* \"#utility.yul\":7547:7563   */\n      swap1\n      pop\n        /* \"#utility.yul\":7537:7569   */\n      swap2\n      swap1\n      pop\n      jump\t// out\n        /* \"#utility.yul\":7575:7808   */\n    tag_33:\n      0x00\n        /* \"#utility.yul\":7637:7661   */\n      tag_121\n        /* \"#utility.yul\":7655:7660   */\n      dup3\n        /* \"#utility.yul\":7637:7661   */\n      tag_118\n      jump\t// in\n    tag_121:\n        /* \"#utility.yul\":7628:7661   */\n      swap2\n      pop\n        /* \"#utility.yul\":7683:7749   */\n      0xffffffffffffffffffffffffffffffffffffffffffffffffffffffffffffffff\n        /* \"#utility.yul\":7676:7681   */\n      dup3\n        /* \"#utility.yul\":7673:7750   */\n      eq\n        /* \"#utility.yul\":7670:7672   */\n      iszero\n      tag_122\n      jumpi\n        /* \"#utility.yul\":7753:7771   */\n      tag_123\n      tag_124\n      jump\t// in\n    tag_123:\n        /* \"#utility.yul\":7670:7672   */\n    tag_122:\n        /* \"#utility.yul\":7800:7801   */\n      0x01\n        /* \"#utility.yul\":7793:7798   */\n      dup3\n        /* \"#utility.yul\":7789:7802   */\n      add\n        /* \"#utility.yul\":7782:7802   */\n      swap1\n      pop\n        /* \"#utility.yul\":7618:7808   */\n      swap2\n      swap1\n      pop\n      jump\t// out\n        /* \"#utility.yul\":7814:7994   */\n    tag_124:\n        /* \"#utility.yul\":7862:7939   */\n      0x4e487b7100000000000000000000000000000000000000000000000000000000\n        /* \"#utility.yul\":7859:7860   */\n      0x00\n        /* \"#utility.yul\":7852:7940   */\n      mstore\n        /* \"#utility.yul\":7959:7963   */\n      0x11\n        /* \"#utility.yul\":7956:7957   */\n      0x04\n        /* \"#utility.yul\":7949:7964   */\n      mstore\n        /* \"#utility.yul\":7983:7987   */\n      0x24\n        /* \"#utility.yul\":7980:7981   */\n      0x00\n        /* \"#utility.yul\":7973:7988   */\n      revert\n        /* \"#utility.yul\":8000:8180   */\n    tag_104:\n        /* \"#utility.yul\":8048:8125   */\n      0x4e487b7100000000000000000000000000000000000000000000000000000000\n        /* \"#utility.yul\":8045:8046   */\n      0x00\n        /* \"#utility.yul\":8038:8126   */\n      mstore\n        /* \"#utility.yul\":8145:8149   */\n      0x41\n        /* \"#utility.yul\":8142:8143   */\n      0x04\n        /* \"#utility.yul\":8135:8150   */\n      mstore\n        /* \"#utility.yul\":8169:8173   */\n      0x24\n        /* \"#utility.yul\":8166:8167   */\n      0x00\n        /* \"#utility.yul\":8159:8174   */\n      revert\n        /* \"#utility.yul\":8186:8308   */\n    tag_60:\n        /* \"#utility.yul\":8259:8283   */\n      tag_128\n        /* \"#utility.yul\":8277:8282   */\n      dup2\n        /* \"#utility.yul\":8259:8283   */\n      tag_113\n      jump\t// in\n    tag_128:\n        /* \"#utility.yul\":8252:8257   */\n      dup2\n        /* \"#utility.yul\":8249:8284   */\n      eq\n        /* \"#utility.yul\":8239:8241   */\n      tag_129\n      jumpi\n        /* \"#utility.yul\":8298:8299   */\n      0x00\n        /* \"#utility.yul\":8295:8296   */\n      dup1\n        /* \"#utility.yul\":8288:8300   */\n      revert\n        /* \"#utility.yul\":8239:8241   */\n    tag_129:\n        /* \"#utility.yul\":8229:8308   */\n      pop\n      jump\t// out\n        /* \"#utility.yul\":8314:8436   */\n    tag_71:\n        /* \"#utility.yul\":8387:8411   */\n      tag_131\n        /* \"#utility.yul\":8405:8410   */\n      dup2\n        /* \"#utility.yul\":8387:8411   */\n      tag_118\n      jump\t// in\n    tag_131:\n        /* \"#utility.yul\":8380:8385   */\n      dup2\n        /* \"#utility.yul\":8377:8412   */\n      eq\n        /* \"#utility.yul\":8367:8369   */\n      tag_132\n      jumpi\n        /* \"#utility.yul\":8426:8427   */\n      0x00\n        /* \"#utility.yul\":8423:8424   */\n      dup1\n        /* \"#utility.yul\":8416:8428   */\n      revert\n        /* \"#utility.yul\":8367:8369   */\n    tag_132:\n        /* \"#utility.yul\":8357:8436   */\n      pop\n      jump\t// out\n\n    auxdata: 0xa26469706673582212209844eab134f6a7443698fad61e6dd0a4cb96b6f35553e73f7102245c874c389a64736f6c63430008000033\n}\n",
				"bytecode": {
					"linkReferences": {},
					"object": "608060405234801561001057600080fd5b506107a9806100206000396000f3fe6080604052600436106100225760003560e01c8063acef79831461002e57610029565b3661002957005b600080fd5b610048600480360381019061004391906103ef565b61004a565b005b805182511461008e576040517f08c379a00000000000000000000000000000000000000000000000000000000081526004016100859061059d565b60405180910390fd5b600a825111156100d3576040517f08c379a00000000000000000000000000000000000000000000000000000000081526004016100ca9061055d565b60405180910390fd5b60005b815181101561029357828181518110610118577f4e487b7100000000000000000000000000000000000000000000000000000000600052603260045260246000fd5b602002602001015173ffffffffffffffffffffffffffffffffffffffff168473ffffffffffffffffffffffffffffffffffffffff161461028057600083828151811061018d577f4e487b7100000000000000000000000000000000000000000000000000000000600052603260045260246000fd5b602002602001015173ffffffffffffffffffffffffffffffffffffffff168383815181106101e4577f4e487b7100000000000000000000000000000000000000000000000000000000600052603260045260246000fd5b60200260200101516040516101f890610548565b60006040518083038185875af1925050503d8060008114610235576040519150601f19603f3d011682016040523d82523d6000602084013e61023a565b606091505b505090508061027e576040517f08c379a00000000000000000000000000000000000000000000000000000000081526004016102759061057d565b60405180910390fd5b505b808061028b9061069e565b9150506100d6565b50505050565b60006102ac6102a7846105ee565b6105bd565b905080838252602082019050828560208602820111156102cb57600080fd5b60005b858110156102fb57816102e18882610371565b8452602084019350602083019250506001810190506102ce565b5050509392505050565b60006103186103138461061a565b6105bd565b9050808382526020820190508285602086028201111561033757600080fd5b60005b85811015610367578161034d88826103da565b84526020840193506020830192505060018101905061033a565b5050509392505050565b60008135905061038081610745565b92915050565b600082601f83011261039757600080fd5b81356103a7848260208601610299565b91505092915050565b600082601f8301126103c157600080fd5b81356103d1848260208601610305565b91505092915050565b6000813590506103e98161075c565b92915050565b60008060006060848603121561040457600080fd5b600061041286828701610371565b935050602084013567ffffffffffffffff81111561042f57600080fd5b61043b86828701610386565b925050604084013567ffffffffffffffff81111561045857600080fd5b610464868287016103b0565b9150509250925092565b600061047b601383610651565b91507f4d6178206c656e677468206578636565646564000000000000000000000000006000830152602082019050919050565b60006104bb600f83610651565b91507f5472616e73666572206661696c656400000000000000000000000000000000006000830152602082019050919050565b60006104fb600f83610651565b91507f496e76616c6964207061796c6f616400000000000000000000000000000000006000830152602082019050919050565b600061053b600083610646565b9150600082019050919050565b60006105538261052e565b9150819050919050565b600060208201905081810360008301526105768161046e565b9050919050565b60006020820190508181036000830152610596816104ae565b9050919050565b600060208201905081810360008301526105b6816104ee565b9050919050565b6000604051905081810181811067ffffffffffffffff821117156105e4576105e3610716565b5b8060405250919050565b600067ffffffffffffffff82111561060957610608610716565b5b602082029050602081019050919050565b600067ffffffffffffffff82111561063557610634610716565b5b602082029050602081019050919050565b600081905092915050565b600082825260208201905092915050565b600061066d82610674565b9050919050565b600073ffffffffffffffffffffffffffffffffffffffff82169050919050565b6000819050919050565b60006106a982610694565b91507fffffffffffffffffffffffffffffffffffffffffffffffffffffffffffffffff8214156106dc576106db6106e7565b5b600182019050919050565b7f4e487b7100000000000000000000000000000000000000000000000000000000600052601160045260246000fd5b7f4e487b7100000000000000000000000000000000000000000000000000000000600052604160045260246000fd5b61074e81610662565b811461075957600080fd5b50565b61076581610694565b811461077057600080fd5b5056fea26469706673582212209844eab134f6a7443698fad61e6dd0a4cb96b6f35553e73f7102245c874c389a64736f6c63430008000033",
					"opcodes": "PUSH1 0x80 PUSH1 0x40 MSTORE CALLVALUE DUP1 ISZERO PUSH2 0x10 JUMPI PUSH1 0x0 DUP1 REVERT JUMPDEST POP PUSH2 0x7A9 DUP1 PUSH2 0x20 PUSH1 0x0 CODECOPY PUSH1 0x0 RETURN INVALID PUSH1 0x80 PUSH1 0x40 MSTORE PUSH1 0x4 CALLDATASIZE LT PUSH2 0x22 JUMPI PUSH1 0x0 CALLDATALOAD PUSH1 0xE0 SHR DUP1 PUSH4 0xACEF7983 EQ PUSH2 0x2E JUMPI PUSH2 0x29 JUMP JUMPDEST CALLDATASIZE PUSH2 0x29 JUMPI STOP JUMPDEST PUSH1 0x0 DUP1 REVERT JUMPDEST PUSH2 0x48 PUSH1 0x4 DUP1 CALLDATASIZE SUB DUP2 ADD SWAP1 PUSH2 0x43 SWAP2 SWAP1 PUSH2 0x3EF JUMP JUMPDEST PUSH2 0x4A JUMP JUMPDEST STOP JUMPDEST DUP1 MLOAD DUP3 MLOAD EQ PUSH2 0x8E JUMPI PUSH1 0x40 MLOAD PUSH32 0x8C379A000000000000000000000000000000000000000000000000000000000 DUP2 MSTORE PUSH1 0x4 ADD PUSH2 0x85 SWAP1 PUSH2 0x59D JUMP JUMPDEST PUSH1 0x40 MLOAD DUP1 SWAP2 SUB SWAP1 REVERT JUMPDEST PUSH1 0xA DUP3 MLOAD GT ISZERO PUSH2 0xD3 JUMPI PUSH1 0x40 MLOAD PUSH32 0x8C379A000000000000000000000000000000000000000000000000000000000 DUP2 MSTORE PUSH1 0x4 ADD PUSH2 0xCA SWAP1 PUSH2 0x55D JUMP JUMPDEST PUSH1 0x40 MLOAD DUP1 SWAP2 SUB SWAP1 REVERT JUMPDEST PUSH1 0x0 JUMPDEST DUP2 MLOAD DUP2 LT ISZERO PUSH2 0x293 JUMPI DUP3 DUP2 DUP2 MLOAD DUP2 LT PUSH2 0x118 JUMPI PUSH32 0x4E487B7100000000000000000000000000000000000000000000000000000000 PUSH1 0x0 MSTORE PUSH1 0x32 PUSH1 0x4 MSTORE PUSH1 0x24 PUSH1 0x0 REVERT JUMPDEST PUSH1 0x20 MUL PUSH1 0x20 ADD ADD MLOAD PUSH20 0xFFFFFFFFFFFFFFFFFFFFFFFFFFFFFFFFFFFFFFFF AND DUP5 PUSH20 0xFFFFFFFFFFFFFFFFFFFFFFFFFFFFFFFFFFFFFFFF AND EQ PUSH2 0x280 JUMPI PUSH1 0x0 DUP4 DUP3 DUP2 MLOAD DUP2 LT PUSH2 0x18D JUMPI PUSH32 0x4E487B7100000000000000000000000000000000000000000000000000000000 PUSH1 0x0 MSTORE PUSH1 0x32 PUSH1 0x4 MSTORE PUSH1 0x24 PUSH1 0x0 REVERT JUMPDEST PUSH1 0x20 MUL PUSH1 0x20 ADD ADD MLOAD PUSH20 0xFFFFFFFFFFFFFFFFFFFFFFFFFFFFFFFFFFFFFFFF AND DUP4 DUP4 DUP2 MLOAD DUP2 LT PUSH2 0x1E4 JUMPI PUSH32 0x4E487B7100000000000000000000000000000000000000000000000000000000 PUSH1 0x0 MSTORE PUSH1 0x32 PUSH1 0x4 MSTORE PUSH1 0x24 PUSH1 0x0 REVERT JUMPDEST PUSH1 0x20 MUL PUSH1 0x20 ADD ADD MLOAD PUSH1 0x40 MLOAD PUSH2 0x1F8 SWAP1 PUSH2 0x548 JUMP JUMPDEST PUSH1 0x0 PUSH1 0x40 MLOAD DUP1 DUP4 SUB DUP2 DUP6 DUP8 GAS CALL SWAP3 POP POP POP RETURNDATASIZE DUP1 PUSH1 0x0 DUP2 EQ PUSH2 0x235 JUMPI PUSH1 0x40 MLOAD SWAP2 POP PUSH1 0x1F NOT PUSH1 0x3F RETURNDATASIZE ADD AND DUP3 ADD PUSH1 0x40 MSTORE RETURNDATASIZE DUP3 MSTORE RETURNDATASIZE PUSH1 0x0 PUSH1 0x20 DUP5 ADD RETURNDATACOPY PUSH2 0x23A JUMP JUMPDEST PUSH1 0x60 SWAP2 POP JUMPDEST POP POP SWAP1 POP DUP1 PUSH2 0x27E JUMPI PUSH1 0x40 MLOAD PUSH32 0x8C379A000000000000000000000000000000000000000000000000000000000 DUP2 MSTORE PUSH1 0x4 ADD PUSH2 0x275 SWAP1 PUSH2 0x57D JUMP JUMPDEST PUSH1 0x40 MLOAD DUP1 SWAP2 SUB SWAP1 REVERT JUMPDEST POP JUMPDEST DUP1 DUP1 PUSH2 0x28B SWAP1 PUSH2 0x69E JUMP JUMPDEST SWAP2 POP POP PUSH2 0xD6 JUMP JUMPDEST POP POP POP POP JUMP JUMPDEST PUSH1 0x0 PUSH2 0x2AC PUSH2 0x2A7 DUP5 PUSH2 0x5EE JUMP JUMPDEST PUSH2 0x5BD JUMP JUMPDEST SWAP1 POP DUP1 DUP4 DUP3 MSTORE PUSH1 0x20 DUP3 ADD SWAP1 POP DUP3 DUP6 PUSH1 0x20 DUP7 MUL DUP3 ADD GT ISZERO PUSH2 0x2CB JUMPI PUSH1 0x0 DUP1 REVERT JUMPDEST PUSH1 0x0 JUMPDEST DUP6 DUP2 LT ISZERO PUSH2 0x2FB JUMPI DUP2 PUSH2 0x2E1 DUP9 DUP3 PUSH2 0x371 JUMP JUMPDEST DUP5 MSTORE PUSH1 0x20 DUP5 ADD SWAP4 POP PUSH1 0x20 DUP4 ADD SWAP3 POP POP PUSH1 0x1 DUP2 ADD SWAP1 POP PUSH2 0x2CE JUMP JUMPDEST POP POP POP SWAP4 SWAP3 POP POP POP JUMP JUMPDEST PUSH1 0x0 PUSH2 0x318 PUSH2 0x313 DUP5 PUSH2 0x61A JUMP JUMPDEST PUSH2 0x5BD JUMP JUMPDEST SWAP1 POP DUP1 DUP4 DUP3 MSTORE PUSH1 0x20 DUP3 ADD SWAP1 POP DUP3 DUP6 PUSH1 0x20 DUP7 MUL DUP3 ADD GT ISZERO PUSH2 0x337 JUMPI PUSH1 0x0 DUP1 REVERT JUMPDEST PUSH1 0x0 JUMPDEST DUP6 DUP2 LT ISZERO PUSH2 0x367 JUMPI DUP2 PUSH2 0x34D DUP9 DUP3 PUSH2 0x3DA JUMP JUMPDEST DUP5 MSTORE PUSH1 0x20 DUP5 ADD SWAP4 POP PUSH1 0x20 DUP4 ADD SWAP3 POP POP PUSH1 0x1 DUP2 ADD SWAP1 POP PUSH2 0x33A JUMP JUMPDEST POP POP POP SWAP4 SWAP3 POP POP POP JUMP JUMPDEST PUSH1 0x0 DUP2 CALLDATALOAD SWAP1 POP PUSH2 0x380 DUP2 PUSH2 0x745 JUMP JUMPDEST SWAP3 SWAP2 POP POP JUMP JUMPDEST PUSH1 0x0 DUP3 PUSH1 0x1F DUP4 ADD SLT PUSH2 0x397 JUMPI PUSH1 0x0 DUP1 REVERT JUMPDEST DUP2 CALLDATALOAD PUSH2 0x3A7 DUP5 DUP3 PUSH1 0x20 DUP7 ADD PUSH2 0x299 JUMP JUMPDEST SWAP2 POP POP SWAP3 SWAP2 POP POP JUMP JUMPDEST PUSH1 0x0 DUP3 PUSH1 0x1F DUP4 ADD SLT PUSH2 0x3C1 JUMPI PUSH1 0x0 DUP1 REVERT JUMPDEST DUP2 CALLDATALOAD PUSH2 0x3D1 DUP5 DUP3 PUSH1 0x20 DUP7 ADD PUSH2 0x305 JUMP JUMPDEST SWAP2 POP POP SWAP3 SWAP2 POP POP JUMP JUMPDEST PUSH1 0x0 DUP2 CALLDATALOAD SWAP1 POP PUSH2 0x3E9 DUP2 PUSH2 0x75C JUMP JUMPDEST SWAP3 SWAP2 POP POP JUMP JUMPDEST PUSH1 0x0 DUP1 PUSH1 0x0 PUSH1 0x60 DUP5 DUP7 SUB SLT ISZERO PUSH2 0x404 JUMPI PUSH1 0x0 DUP1 REVERT JUMPDEST PUSH1 0x0 PUSH2 0x412 DUP7 DUP3 DUP8 ADD PUSH2 0x371 JUMP JUMPDEST SWAP4 POP POP PUSH1 0x20 DUP5 ADD CALLDATALOAD PUSH8 0xFFFFFFFFFFFFFFFF DUP2 GT ISZERO PUSH2 0x42F JUMPI PUSH1 0x0 DUP1 REVERT JUMPDEST PUSH2 0x43B DUP7 DUP3 DUP8 ADD PUSH2 0x386 JUMP JUMPDEST SWAP3 POP POP PUSH1 0x40 DUP5 ADD CALLDATALOAD PUSH8 0xFFFFFFFFFFFFFFFF DUP2 GT ISZERO PUSH2 0x458 JUMPI PUSH1 0x0 DUP1 REVERT JUMPDEST PUSH2 0x464 DUP7 DUP3 DUP8 ADD PUSH2 0x3B0 JUMP JUMPDEST SWAP2 POP POP SWAP3 POP SWAP3 POP SWAP3 JUMP JUMPDEST PUSH1 0x0 PUSH2 0x47B PUSH1 0x13 DUP4 PUSH2 0x651 JUMP JUMPDEST SWAP2 POP PUSH32 0x4D6178206C656E67746820657863656564656400000000000000000000000000 PUSH1 0x0 DUP4 ADD MSTORE PUSH1 0x20 DUP3 ADD SWAP1 POP SWAP2 SWAP1 POP JUMP JUMPDEST PUSH1 0x0 PUSH2 0x4BB PUSH1 0xF DUP4 PUSH2 0x651 JUMP JUMPDEST SWAP2 POP PUSH32 0x5472616E73666572206661696C65640000000000000000000000000000000000 PUSH1 0x0 DUP4 ADD MSTORE PUSH1 0x20 DUP3 ADD SWAP1 POP SWAP2 SWAP1 POP JUMP JUMPDEST PUSH1 0x0 PUSH2 0x4FB PUSH1 0xF DUP4 PUSH2 0x651 JUMP JUMPDEST SWAP2 POP PUSH32 0x496E76616C6964207061796C6F61640000000000000000000000000000000000 PUSH1 0x0 DUP4 ADD MSTORE PUSH1 0x20 DUP3 ADD SWAP1 POP SWAP2 SWAP1 POP JUMP JUMPDEST PUSH1 0x0 PUSH2 0x53B PUSH1 0x0 DUP4 PUSH2 0x646 JUMP JUMPDEST SWAP2 POP PUSH1 0x0 DUP3 ADD SWAP1 POP SWAP2 SWAP1 POP JUMP JUMPDEST PUSH1 0x0 PUSH2 0x553 DUP3 PUSH2 0x52E JUMP JUMPDEST SWAP2 POP DUP2 SWAP1 POP SWAP2 SWAP1 POP JUMP JUMPDEST PUSH1 0x0 PUSH1 0x20 DUP3 ADD SWAP1 POP DUP2 DUP2 SUB PUSH1 0x0 DUP4 ADD MSTORE PUSH2 0x576 DUP2 PUSH2 0x46E JUMP JUMPDEST SWAP1 POP SWAP2 SWAP1 POP JUMP JUMPDEST PUSH1 0x0 PUSH1 0x20 DUP3 ADD SWAP1 POP DUP2 DUP2 SUB PUSH1 0x0 DUP4 ADD MSTORE PUSH2 0x596 DUP2 PUSH2 0x4AE JUMP JUMPDEST SWAP1 POP SWAP2 SWAP1 POP JUMP JUMPDEST PUSH1 0x0 PUSH1 0x20 DUP3 ADD SWAP1 POP DUP2 DUP2 SUB PUSH1 0x0 DUP4 ADD MSTORE PUSH2 0x5B6 DUP2 PUSH2 0x4EE JUMP JUMPDEST SWAP1 POP SWAP2 SWAP1 POP JUMP JUMPDEST PUSH1 0x0 PUSH1 0x40 MLOAD SWAP1 POP DUP2 DUP2 ADD DUP2 DUP2 LT PUSH8 0xFFFFFFFFFFFFFFFF DUP3 GT OR ISZERO PUSH2 0x5E4 JUMPI PUSH2 0x5E3 PUSH2 0x716 JUMP JUMPDEST JUMPDEST DUP1 PUSH1 0x40 MSTORE POP SWAP2 SWAP1 POP JUMP JUMPDEST PUSH1 0x0 PUSH8 0xFFFFFFFFFFFFFFFF DUP3 GT ISZERO PUSH2 0x609 JUMPI PUSH2 0x608 PUSH2 0x716 JUMP JUMPDEST JUMPDEST PUSH1 0x20 DUP3 MUL SWAP1 POP PUSH1 0x20 DUP2 ADD SWAP1 POP SWAP2 SWAP1 POP JUMP JUMPDEST PUSH1 0x0 PUSH8 0xFFFFFFFFFFFFFFFF DUP3 GT ISZERO PUSH2 0x635 JUMPI PUSH2 0x634 PUSH2 0x716 JUMP JUMPDEST JUMPDEST PUSH1 0x20 DUP3 MUL SWAP1 POP PUSH1 0x20 DUP2 ADD SWAP1 POP SWAP2 SWAP1 POP JUMP JUMPDEST PUSH1 0x0 DUP2 SWAP1 POP SWAP3 SWAP2 POP POP JUMP JUMPDEST PUSH1 0x0 DUP3 DUP3 MSTORE PUSH1 0x20 DUP3 ADD SWAP1 POP SWAP3 SWAP2 POP POP JUMP JUMPDEST PUSH1 0x0 PUSH2 0x66D DUP3 PUSH2 0x674 JUMP JUMPDEST SWAP1 POP SWAP2 SWAP1 POP JUMP JUMPDEST PUSH1 0x0 PUSH20 0xFFFFFFFFFFFFFFFFFFFFFFFFFFFFFFFFFFFFFFFF DUP3 AND SWAP1 POP SWAP2 SWAP1 POP JUMP JUMPDEST PUSH1 0x0 DUP2 SWAP1 POP SWAP2 SWAP1 POP JUMP JUMPDEST PUSH1 0x0 PUSH2 0x6A9 DUP3 PUSH2 0x694 JUMP JUMPDEST SWAP2 POP PUSH32 0xFFFFFFFFFFFFFFFFFFFFFFFFFFFFFFFFFFFFFFFFFFFFFFFFFFFFFFFFFFFFFFFF DUP3 EQ ISZERO PUSH2 0x6DC JUMPI PUSH2 0x6DB PUSH2 0x6E7 JUMP JUMPDEST JUMPDEST PUSH1 0x1 DUP3 ADD SWAP1 POP SWAP2 SWAP1 POP JUMP JUMPDEST PUSH32 0x4E487B7100000000000000000000000000000000000000000000000000000000 PUSH1 0x0 MSTORE PUSH1 0x11 PUSH1 0x4 MSTORE PUSH1 0x24 PUSH1 0x0 REVERT JUMPDEST PUSH32 0x4E487B7100000000000000000000000000000000000000000000000000000000 PUSH1 0x0 MSTORE PUSH1 0x41 PUSH1 0x4 MSTORE PUSH1 0x24 PUSH1 0x0 REVERT JUMPDEST PUSH2 0x74E DUP2 PUSH2 0x662 JUMP JUMPDEST DUP2 EQ PUSH2 0x759 JUMPI PUSH1 0x0 DUP1 REVERT JUMPDEST POP JUMP JUMPDEST PUSH2 0x765 DUP2 PUSH2 0x694 JUMP JUMPDEST DUP2 EQ PUSH2 0x770 JUMPI PUSH1 0x0 DUP1 REVERT JUMPDEST POP JUMP INVALID LOG2 PUSH5 0x6970667358 0x22 SLT KECCAK256 SWAP9 DIFFICULTY 0xEA 0xB1 CALLVALUE 0xF6 0xA7 DIFFICULTY CALLDATASIZE SWAP9 STATICCALL 0xD6 0x1E PUSH14 0xD0A4CB96B6F35553E73F7102245C DUP8 0x4C CODESIZE SWAP11 PUSH5 0x736F6C6343 STOP ADDMOD STOP STOP CALLER "
				},
				"gasEstimates": {
					"creation": {
						"codeDepositCost": "392200",
						"executionCost": "430",
						"totalCost": "392630"
					},
					"external": {
						"sendEther(address,address[],uint256[])": "infinite"
					}
				},
				"methodIdentifiers": {
					"sendEther(address,address[],uint256[])": "acef7983"
				}
			},
			"storageLayout": {
				"storage": [],
				"types": null
			},
			"userdoc": {
				"kind": "user",
				"methods": {},
				"version": 1
			}
		}
	}
}